{
  "_format": "hh3-artifact-1",
  "contractName": "Ascent",
  "sourceName": "contracts/Ascent.sol",
  "abi": [
    {
      "inputs": [],
      "stateMutability": "nonpayable",
      "type": "constructor"
    },
    {
      "inputs": [],
      "name": "AssetsAlreadyDistributed",
      "type": "error"
    },
    {
      "inputs": [],
      "name": "BeneficiaryAlreadyExists",
      "type": "error"
    },
    {
      "inputs": [],
      "name": "BeneficiaryNotFound",
      "type": "error"
    },
    {
      "inputs": [],
      "name": "HeartbeatExpiredCannotCheckIn",
      "type": "error"
    },
    {
      "inputs": [],
      "name": "HeartbeatNotExpired",
      "type": "error"
    },
    {
      "inputs": [],
      "name": "InvalidBeneficiaryAddress",
      "type": "error"
    },
    {
      "inputs": [],
      "name": "InvalidCheckInInterval",
      "type": "error"
    },
    {
      "inputs": [],
      "name": "InvalidInitialization",
      "type": "error"
    },
    {
      "inputs": [],
      "name": "NoAssetsToDistribute",
      "type": "error"
    },
    {
      "inputs": [],
      "name": "NotInitializing",
      "type": "error"
    },
    {
      "inputs": [
        {
          "internalType": "address",
          "name": "owner",
          "type": "address"
        }
      ],
      "name": "OwnableInvalidOwner",
      "type": "error"
    },
    {
      "inputs": [
        {
          "internalType": "address",
          "name": "account",
          "type": "address"
        }
      ],
      "name": "OwnableUnauthorizedAccount",
      "type": "error"
    },
    {
      "anonymous": false,
      "inputs": [
        {
          "indexed": false,
          "internalType": "address[]",
          "name": "beneficiaries",
          "type": "address[]"
        },
        {
          "indexed": false,
          "internalType": "uint256",
          "name": "tokenCount",
          "type": "uint256"
        }
      ],
      "name": "AssetsDistributed",
      "type": "event"
    },
    {
      "anonymous": false,
      "inputs": [
        {
          "indexed": true,
          "internalType": "address",
          "name": "grantor",
          "type": "address"
        },
        {
          "indexed": false,
          "internalType": "uint256",
          "name": "timestamp",
          "type": "uint256"
        }
      ],
      "name": "CheckIn",
      "type": "event"
    },
    {
      "anonymous": false,
      "inputs": [
        {
          "indexed": false,
          "internalType": "uint256",
          "name": "timestamp",
          "type": "uint256"
        }
      ],
      "name": "DeadMansSwitchTriggered",
      "type": "event"
    },
    {
      "anonymous": false,
      "inputs": [
        {
          "indexed": false,
          "internalType": "uint64",
          "name": "version",
          "type": "uint64"
        }
      ],
      "name": "Initialized",
      "type": "event"
    },
    {
      "anonymous": false,
      "inputs": [
        {
          "indexed": true,
          "internalType": "address",
          "name": "previousOwner",
          "type": "address"
        },
        {
          "indexed": true,
          "internalType": "address",
          "name": "newOwner",
          "type": "address"
        }
      ],
      "name": "OwnershipTransferred",
      "type": "event"
    },
    {
      "inputs": [
        {
          "internalType": "address",
          "name": "_beneficiary",
          "type": "address"
        }
      ],
      "name": "addBeneficiary",
      "outputs": [],
      "stateMutability": "nonpayable",
      "type": "function"
    },
    {
      "inputs": [],
      "name": "assetsDistributed",
      "outputs": [
        {
          "internalType": "bool",
          "name": "",
          "type": "bool"
        }
      ],
      "stateMutability": "view",
      "type": "function"
    },
    {
      "inputs": [
        {
          "internalType": "uint256",
          "name": "",
          "type": "uint256"
        }
      ],
      "name": "beneficiaries",
      "outputs": [
        {
          "internalType": "address",
          "name": "",
          "type": "address"
        }
      ],
      "stateMutability": "view",
      "type": "function"
    },
    {
      "inputs": [],
      "name": "checkIn",
      "outputs": [],
      "stateMutability": "nonpayable",
      "type": "function"
    },
    {
      "inputs": [],
      "name": "checkInInterval",
      "outputs": [
        {
          "internalType": "enum IAscent.CheckInInterval",
          "name": "",
          "type": "uint8"
        }
      ],
      "stateMutability": "view",
      "type": "function"
    },
    {
      "inputs": [],
      "name": "distributeAssets",
      "outputs": [],
      "stateMutability": "nonpayable",
      "type": "function"
    },
    {
      "inputs": [],
      "name": "getBeneficiaries",
      "outputs": [
        {
          "internalType": "address[]",
          "name": "",
          "type": "address[]"
        }
      ],
      "stateMutability": "view",
      "type": "function"
    },
    {
      "inputs": [],
      "name": "getBeneficiaryCount",
      "outputs": [
        {
          "internalType": "uint256",
          "name": "",
          "type": "uint256"
        }
      ],
      "stateMutability": "view",
      "type": "function"
    },
    {
      "inputs": [],
      "name": "getNextCheckInDeadline",
      "outputs": [
        {
          "internalType": "uint256",
          "name": "",
          "type": "uint256"
        }
      ],
      "stateMutability": "view",
      "type": "function"
    },
    {
      "inputs": [],
      "name": "getRegisteredTokens",
      "outputs": [
        {
          "internalType": "address[]",
          "name": "",
          "type": "address[]"
        }
      ],
      "stateMutability": "view",
      "type": "function"
    },
    {
      "inputs": [],
      "name": "getTimeRemaining",
      "outputs": [
        {
          "internalType": "uint256",
          "name": "",
          "type": "uint256"
        }
      ],
      "stateMutability": "view",
      "type": "function"
    },
    {
      "inputs": [],
      "name": "hasHeartbeatExpired",
      "outputs": [
        {
          "internalType": "bool",
          "name": "",
          "type": "bool"
        }
      ],
      "stateMutability": "view",
      "type": "function"
    },
    {
      "inputs": [
        {
          "internalType": "address",
          "name": "_grantor",
          "type": "address"
        },
        {
          "internalType": "address[]",
          "name": "_beneficiaries",
          "type": "address[]"
        },
        {
          "internalType": "enum IAscent.CheckInInterval",
          "name": "_checkInInterval",
          "type": "uint8"
        }
      ],
      "name": "initialize",
      "outputs": [],
      "stateMutability": "nonpayable",
      "type": "function"
    },
    {
      "inputs": [],
      "name": "lastCheckIn",
      "outputs": [
        {
          "internalType": "uint256",
          "name": "",
          "type": "uint256"
        }
      ],
      "stateMutability": "view",
      "type": "function"
    },
    {
      "inputs": [],
      "name": "owner",
      "outputs": [
        {
          "internalType": "address",
          "name": "",
          "type": "address"
        }
      ],
      "stateMutability": "view",
      "type": "function"
    },
    {
      "inputs": [
        {
          "internalType": "address",
          "name": "tokenAddress",
          "type": "address"
        }
      ],
      "name": "registerToken",
      "outputs": [],
      "stateMutability": "nonpayable",
      "type": "function"
    },
    {
      "inputs": [
        {
          "internalType": "uint256",
          "name": "",
          "type": "uint256"
        }
      ],
      "name": "registeredTokens",
      "outputs": [
        {
          "internalType": "address",
          "name": "",
          "type": "address"
        }
      ],
      "stateMutability": "view",
      "type": "function"
    },
    {
      "inputs": [],
      "name": "registry",
      "outputs": [
        {
          "internalType": "address",
          "name": "",
          "type": "address"
        }
      ],
      "stateMutability": "view",
      "type": "function"
    },
    {
      "inputs": [
        {
          "internalType": "address",
          "name": "_beneficiary",
          "type": "address"
        }
      ],
      "name": "removeBeneficiary",
      "outputs": [],
      "stateMutability": "nonpayable",
      "type": "function"
    },
    {
      "inputs": [],
      "name": "renounceOwnership",
      "outputs": [],
      "stateMutability": "nonpayable",
      "type": "function"
    },
    {
      "inputs": [
        {
          "internalType": "address",
          "name": "newOwner",
          "type": "address"
        }
      ],
      "name": "transferOwnership",
      "outputs": [],
      "stateMutability": "nonpayable",
      "type": "function"
    }
  ],
  "bytecode": "0x608060405234801561000f575f5ffd5b5061001e61002360201b60201c565b61019e565b5f61003261012160201b60201c565b9050805f0160089054906101000a900460ff161561007c576040517ff92ee8a900000000000000000000000000000000000000000000000000000000815260040160405180910390fd5b67ffffffffffffffff8016815f015f9054906101000a900467ffffffffffffffff1667ffffffffffffffff161461011e5767ffffffffffffffff815f015f6101000a81548167ffffffffffffffff021916908367ffffffffffffffff1602179055507fc7f505b2f371ae2175ee4913f4499e1f2633a7b5936321eed1cdaeb6115181d267ffffffffffffffff6040516101159190610185565b60405180910390a15b50565b5f5f61013161013a60201b60201c565b90508091505090565b5f7ff0c57e16840df040f15088dc2f81fe391c3923bec73e23a9662efc9c229c6a005f1b905090565b5f67ffffffffffffffff82169050919050565b61017f81610163565b82525050565b5f6020820190506101985f830184610176565b92915050565b6121a6806101ab5f395ff3fe608060405234801561000f575f5ffd5b5060043610610135575f3560e01c80637720b4bb116100b65780639a6e7fd11161007a5780639a6e7fd1146102c9578063bfd25fa5146102e7578063dac6270d14610305578063db78dabd14610323578063efeb5e5814610341578063f2fde38b1461037157610135565b80637720b4bb146102215780637b1039991461023f5780638da5cb5b1461025d578063913b722c1461027b5780639a0ba2ea1461029957610135565b80632dac3b21116100fd5780632dac3b21146101a557806349cd6139146101c15780635926651d146101df57806359633a1c146101fb578063715018a61461021757610135565b806309824a801461013957806314cbd99314610155578063183ff085146101735780631bfb23c31461017d578063256fc59a1461019b575b5f5ffd5b610153600480360381019061014e91906118d2565b61038d565b005b61015d61051d565b60405161016a91906119b4565b60405180910390f35b61017b6105a8565b005b61018561064d565b60405161019291906119ee565b60405180910390f35b6101a361067a565b005b6101bf60048036038101906101ba9190611b7a565b6108c9565b005b6101c9610aec565b6040516101d691906119ee565b60405180910390f35b6101f960048036038101906101f491906118d2565b610aff565b005b610215600480360381019061021091906118d2565b610d1c565b005b61021f610fd8565b005b610229610feb565b6040516102369190611bfe565b60405180910390f35b610247611015565b6040516102549190611c26565b60405180910390f35b61026561103a565b6040516102729190611c26565b60405180910390f35b61028361106f565b60405161029091906119b4565b60405180910390f35b6102b360048036038101906102ae9190611c69565b6110f9565b6040516102c09190611c26565b60405180910390f35b6102d1611134565b6040516102de9190611bfe565b60405180910390f35b6102ef61113f565b6040516102fc9190611d07565b60405180910390f35b61030d611151565b60405161031a9190611bfe565b60405180910390f35b61032b61119c565b6040516103389190611bfe565b60405180910390f35b61035b60048036038101906103569190611c69565b6111a2565b6040516103689190611c26565b60405180910390f35b61038b600480360381019061038691906118d2565b6111dc565b005b610395611260565b5f73ffffffffffffffffffffffffffffffffffffffff168173ffffffffffffffffffffffffffffffffffffffff16036103fa576040517fd343d98400000000000000000000000000000000000000000000000000000000815260040160405180910390fd5b5f5f90505b6004805490508110156104b9578173ffffffffffffffffffffffffffffffffffffffff166004828154811061043757610436611d20565b5b905f5260205f20015f9054906101000a900473ffffffffffffffffffffffffffffffffffffffff1673ffffffffffffffffffffffffffffffffffffffff16036104ac576040517f5e6379d700000000000000000000000000000000000000000000000000000000815260040160405180910390fd5b80806001019150506103ff565b50600481908060018154018082558091505060019003905f5260205f20015f9091909190916101000a81548173ffffffffffffffffffffffffffffffffffffffff021916908373ffffffffffffffffffffffffffffffffffffffff16021790555050565b6060600480548060200260200160405190810160405280929190818152602001828054801561059e57602002820191905f5260205f20905b815f9054906101000a900473ffffffffffffffffffffffffffffffffffffffff1673ffffffffffffffffffffffffffffffffffffffff1681526020019060010190808311610555575b5050505050905090565b6105b0611260565b6105b861064d565b156105ef576040517f93b4c60d00000000000000000000000000000000000000000000000000000000815260040160405180910390fd5b426002819055506105fe61103a565b73ffffffffffffffffffffffffffffffffffffffff167fa864a8b988e604bb05d6ce75d53efabb5620c45b15380b7bd0c51dcfa71dda03426040516106439190611bfe565b60405180910390a2565b5f61066560015f9054906101000a900460ff166112e7565b6002546106729190611d7a565b421015905090565b61068261064d565b6106b8576040517f9f0b25a600000000000000000000000000000000000000000000000000000000815260040160405180910390fd5b600360149054906101000a900460ff16156106ff576040517fd4b4619900000000000000000000000000000000000000000000000000000000815260040160405180910390fd5b5f5f805490501161073c576040517fc67e049400000000000000000000000000000000000000000000000000000000815260040160405180910390fd5b5f6004805490501161077a576040517fc67e049400000000000000000000000000000000000000000000000000000000815260040160405180910390fd5b6001600360146101000a81548160ff0219169083151502179055505f5f90505b600480549050811015610888575f600482815481106107bc576107bb611d20565b5b905f5260205f20015f9054906101000a900473ffffffffffffffffffffffffffffffffffffffff1690505f8190505f8173ffffffffffffffffffffffffffffffffffffffff166370a08231306040518263ffffffff1660e01b81526004016108249190611c26565b602060405180830381865afa15801561083f573d5f5f3e3d5ffd5b505050506040513d601f19601f820116820180604052508101906108639190611dc1565b90505f811115610878576108778282611431565b5b505050808060010191505061079a565b507fb772d5dd8f8e18625bf9c8a76226e6b86e0680cb6b6a5359a3eb78051f8ff59e5f6004805490506040516108bf929190611ecc565b60405180910390a1565b5f6108d2611594565b90505f815f0160089054906101000a900460ff161590505f825f015f9054906101000a900467ffffffffffffffff1690505f5f8267ffffffffffffffff1614801561091a5750825b90505f60018367ffffffffffffffff1614801561094d57505f3073ffffffffffffffffffffffffffffffffffffffff163b145b90508115801561095b575080155b15610992576040517ff92ee8a900000000000000000000000000000000000000000000000000000000815260040160405180910390fd5b6001855f015f6101000a81548167ffffffffffffffff021916908367ffffffffffffffff16021790555083156109df576001855f0160086101000a81548160ff0219169083151502179055505b6109e8886115a7565b865f90805190602001906109fd9291906117c5565b508560015f6101000a81548160ff02191690836004811115610a2257610a21611c94565b5b0217905550426002819055503360035f6101000a81548173ffffffffffffffffffffffffffffffffffffffff021916908373ffffffffffffffffffffffffffffffffffffffff1602179055505f600360146101000a81548160ff0219169083151502179055508315610ae2575f855f0160086101000a81548160ff0219169083151502179055507fc7f505b2f371ae2175ee4913f4499e1f2633a7b5936321eed1cdaeb6115181d26001604051610ad99190611f4f565b60405180910390a15b5050505050505050565b600360149054906101000a900460ff1681565b610b07611260565b5f73ffffffffffffffffffffffffffffffffffffffff168173ffffffffffffffffffffffffffffffffffffffff1603610b6c576040517fd343d98400000000000000000000000000000000000000000000000000000000815260040160405180910390fd5b5f5f90505b5f80549050811015610c29578173ffffffffffffffffffffffffffffffffffffffff165f8281548110610ba757610ba6611d20565b5b905f5260205f20015f9054906101000a900473ffffffffffffffffffffffffffffffffffffffff1673ffffffffffffffffffffffffffffffffffffffff1603610c1c576040517f5e6379d700000000000000000000000000000000000000000000000000000000815260040160405180910390fd5b8080600101915050610b71565b505f81908060018154018082558091505060019003905f5260205f20015f9091909190916101000a81548173ffffffffffffffffffffffffffffffffffffffff021916908373ffffffffffffffffffffffffffffffffffffffff16021790555060035f9054906101000a900473ffffffffffffffffffffffffffffffffffffffff1673ffffffffffffffffffffffffffffffffffffffff16636d165281610cce61103a565b836040518363ffffffff1660e01b8152600401610cec929190611f68565b5f604051808303815f87803b158015610d03575f5ffd5b505af1158015610d15573d5f5f3e3d5ffd5b5050505050565b610d24611260565b5f73ffffffffffffffffffffffffffffffffffffffff168173ffffffffffffffffffffffffffffffffffffffff1603610d89576040517fd343d98400000000000000000000000000000000000000000000000000000000815260040160405180910390fd5b5f5f90505f5f5f90505b5f80549050811015610e25578373ffffffffffffffffffffffffffffffffffffffff165f8281548110610dc957610dc8611d20565b5b905f5260205f20015f9054906101000a900473ffffffffffffffffffffffffffffffffffffffff1673ffffffffffffffffffffffffffffffffffffffff1603610e185760019250809150610e25565b8080600101915050610d93565b5081610e5d576040517f694f351f00000000000000000000000000000000000000000000000000000000815260040160405180910390fd5b5f60015f80549050610e6f9190611f8f565b81548110610e8057610e7f611d20565b5b905f5260205f20015f9054906101000a900473ffffffffffffffffffffffffffffffffffffffff165f8281548110610ebb57610eba611d20565b5b905f5260205f20015f6101000a81548173ffffffffffffffffffffffffffffffffffffffff021916908373ffffffffffffffffffffffffffffffffffffffff1602179055505f805480610f1157610f10611fc2565b5b600190038181905f5260205f20015f6101000a81549073ffffffffffffffffffffffffffffffffffffffff0219169055905560035f9054906101000a900473ffffffffffffffffffffffffffffffffffffffff1673ffffffffffffffffffffffffffffffffffffffff16636a8a03e5610f8861103a565b856040518363ffffffff1660e01b8152600401610fa6929190611f68565b5f604051808303815f87803b158015610fbd575f5ffd5b505af1158015610fcf573d5f5f3e3d5ffd5b50505050505050565b610fe0611260565b610fe95f6115bb565b565b5f61100360015f9054906101000a900460ff166112e7565b6002546110109190611d7a565b905090565b60035f9054906101000a900473ffffffffffffffffffffffffffffffffffffffff1681565b5f5f61104461168c565b9050805f015f9054906101000a900473ffffffffffffffffffffffffffffffffffffffff1691505090565b60605f8054806020026020016040519081016040528092919081815260200182805480156110ef57602002820191905f5260205f20905b815f9054906101000a900473ffffffffffffffffffffffffffffffffffffffff1673ffffffffffffffffffffffffffffffffffffffff16815260200190600101908083116110a6575b5050505050905090565b60048181548110611108575f80fd5b905f5260205f20015f915054906101000a900473ffffffffffffffffffffffffffffffffffffffff1681565b5f5f80549050905090565b60015f9054906101000a900460ff1681565b5f5f61116a60015f9054906101000a900460ff166112e7565b6002546111779190611d7a565b9050804210611189575f915050611199565b42816111959190611f8f565b9150505b90565b60025481565b5f81815481106111b0575f80fd5b905f5260205f20015f915054906101000a900473ffffffffffffffffffffffffffffffffffffffff1681565b6111e4611260565b5f73ffffffffffffffffffffffffffffffffffffffff168173ffffffffffffffffffffffffffffffffffffffff1603611254575f6040517f1e4fbdf700000000000000000000000000000000000000000000000000000000815260040161124b9190611c26565b60405180910390fd5b61125d816115bb565b50565b6112686116b3565b73ffffffffffffffffffffffffffffffffffffffff1661128661103a565b73ffffffffffffffffffffffffffffffffffffffff16146112e5576112a96116b3565b6040517f118cdaa70000000000000000000000000000000000000000000000000000000081526004016112dc9190611c26565b60405180910390fd5b565b5f5f60048111156112fb576112fa611c94565b5b82600481111561130e5761130d611c94565b5b0361131e5762093a80905061142c565b6001600481111561133257611331611c94565b5b82600481111561134557611344611c94565b5b036113555762127500905061142c565b6002600481111561136957611368611c94565b5b82600481111561137c5761137b611c94565b5b0361138c5762278d00905061142c565b600360048111156113a05761139f611c94565b5b8260048111156113b3576113b2611c94565b5b036113c35762ed4e00905061142c565b6004808111156113d6576113d5611c94565b5b8260048111156113e9576113e8611c94565b5b036113fa576301e13380905061142c565b6040517fab257c7f00000000000000000000000000000000000000000000000000000000815260040160405180910390fd5b919050565b5f5f8054905082611442919061201c565b90505f5f8054905083611455919061204c565b90505f5f90505b5f8054905081101561158d575f8390505f820361148257828161147f9190611d7a565b90505b5f81111561157f578573ffffffffffffffffffffffffffffffffffffffff1663a9059cbb5f84815481106114b9576114b8611d20565b5b905f5260205f20015f9054906101000a900473ffffffffffffffffffffffffffffffffffffffff16836040518363ffffffff1660e01b81526004016114ff92919061207c565b6020604051808303815f875af115801561151b573d5f5f3e3d5ffd5b505050506040513d601f19601f8201168201806040525081019061153f91906120cd565b61157e576040517f08c379a000000000000000000000000000000000000000000000000000000000815260040161157590612152565b60405180910390fd5b5b50808060010191505061145c565b5050505050565b5f5f61159e6116ba565b90508091505090565b6115af6116e3565b6115b881611723565b50565b5f6115c461168c565b90505f815f015f9054906101000a900473ffffffffffffffffffffffffffffffffffffffff16905082825f015f6101000a81548173ffffffffffffffffffffffffffffffffffffffff021916908373ffffffffffffffffffffffffffffffffffffffff1602179055508273ffffffffffffffffffffffffffffffffffffffff168173ffffffffffffffffffffffffffffffffffffffff167f8be0079c531659141344cd1fd0a4f28419497f9722a3daafe3b4186f6b6457e060405160405180910390a3505050565b5f7f9016d09d72d40fdae2fd8ceac6b6234c7706214fd39c1cd1e609a0528c199300905090565b5f33905090565b5f7ff0c57e16840df040f15088dc2f81fe391c3923bec73e23a9662efc9c229c6a005f1b905090565b6116eb6117a7565b611721576040517fd7e6bcf800000000000000000000000000000000000000000000000000000000815260040160405180910390fd5b565b61172b6116e3565b5f73ffffffffffffffffffffffffffffffffffffffff168173ffffffffffffffffffffffffffffffffffffffff160361179b575f6040517f1e4fbdf70000000000000000000000000000000000000000000000000000000081526004016117929190611c26565b60405180910390fd5b6117a4816115bb565b50565b5f6117b0611594565b5f0160089054906101000a900460ff16905090565b828054828255905f5260205f2090810192821561183b579160200282015b8281111561183a578251825f6101000a81548173ffffffffffffffffffffffffffffffffffffffff021916908373ffffffffffffffffffffffffffffffffffffffff160217905550916020019190600101906117e3565b5b509050611848919061184c565b5090565b5b80821115611863575f815f90555060010161184d565b5090565b5f604051905090565b5f5ffd5b5f5ffd5b5f73ffffffffffffffffffffffffffffffffffffffff82169050919050565b5f6118a182611878565b9050919050565b6118b181611897565b81146118bb575f5ffd5b50565b5f813590506118cc816118a8565b92915050565b5f602082840312156118e7576118e6611870565b5b5f6118f4848285016118be565b91505092915050565b5f81519050919050565b5f82825260208201905092915050565b5f819050602082019050919050565b61192f81611897565b82525050565b5f6119408383611926565b60208301905092915050565b5f602082019050919050565b5f611962826118fd565b61196c8185611907565b935061197783611917565b805f5b838110156119a757815161198e8882611935565b97506119998361194c565b92505060018101905061197a565b5085935050505092915050565b5f6020820190508181035f8301526119cc8184611958565b905092915050565b5f8115159050919050565b6119e8816119d4565b82525050565b5f602082019050611a015f8301846119df565b92915050565b5f5ffd5b5f601f19601f8301169050919050565b7f4e487b71000000000000000000000000000000000000000000000000000000005f52604160045260245ffd5b611a5182611a0b565b810181811067ffffffffffffffff82111715611a7057611a6f611a1b565b5b80604052505050565b5f611a82611867565b9050611a8e8282611a48565b919050565b5f67ffffffffffffffff821115611aad57611aac611a1b565b5b602082029050602081019050919050565b5f5ffd5b5f611ad4611acf84611a93565b611a79565b90508083825260208201905060208402830185811115611af757611af6611abe565b5b835b81811015611b205780611b0c88826118be565b845260208401935050602081019050611af9565b5050509392505050565b5f82601f830112611b3e57611b3d611a07565b5b8135611b4e848260208601611ac2565b91505092915050565b60058110611b63575f5ffd5b50565b5f81359050611b7481611b57565b92915050565b5f5f5f60608486031215611b9157611b90611870565b5b5f611b9e868287016118be565b935050602084013567ffffffffffffffff811115611bbf57611bbe611874565b5b611bcb86828701611b2a565b9250506040611bdc86828701611b66565b9150509250925092565b5f819050919050565b611bf881611be6565b82525050565b5f602082019050611c115f830184611bef565b92915050565b611c2081611897565b82525050565b5f602082019050611c395f830184611c17565b92915050565b611c4881611be6565b8114611c52575f5ffd5b50565b5f81359050611c6381611c3f565b92915050565b5f60208284031215611c7e57611c7d611870565b5b5f611c8b84828501611c55565b91505092915050565b7f4e487b71000000000000000000000000000000000000000000000000000000005f52602160045260245ffd5b60058110611cd257611cd1611c94565b5b50565b5f819050611ce282611cc1565b919050565b5f611cf182611cd5565b9050919050565b611d0181611ce7565b82525050565b5f602082019050611d1a5f830184611cf8565b92915050565b7f4e487b71000000000000000000000000000000000000000000000000000000005f52603260045260245ffd5b7f4e487b71000000000000000000000000000000000000000000000000000000005f52601160045260245ffd5b5f611d8482611be6565b9150611d8f83611be6565b9250828201905080821115611da757611da6611d4d565b5b92915050565b5f81519050611dbb81611c3f565b92915050565b5f60208284031215611dd657611dd5611870565b5b5f611de384828501611dad565b91505092915050565b5f81549050919050565b5f819050815f5260205f209050919050565b5f815f1c9050919050565b5f73ffffffffffffffffffffffffffffffffffffffff82169050919050565b5f611e44611e3f83611e08565b611e13565b9050919050565b5f611e568254611e32565b9050919050565b5f600182019050919050565b5f611e7382611dec565b611e7d8185611907565b9350611e8883611df6565b805f5b83811015611ebf57611e9c82611e4b565b611ea68882611935565b9750611eb183611e5d565b925050600181019050611e8b565b5085935050505092915050565b5f6040820190508181035f830152611ee48185611e69565b9050611ef36020830184611bef565b9392505050565b5f819050919050565b5f67ffffffffffffffff82169050919050565b5f819050919050565b5f611f39611f34611f2f84611efa565b611f16565b611f03565b9050919050565b611f4981611f1f565b82525050565b5f602082019050611f625f830184611f40565b92915050565b5f604082019050611f7b5f830185611c17565b611f886020830184611c17565b9392505050565b5f611f9982611be6565b9150611fa483611be6565b9250828203905081811115611fbc57611fbb611d4d565b5b92915050565b7f4e487b71000000000000000000000000000000000000000000000000000000005f52603160045260245ffd5b7f4e487b71000000000000000000000000000000000000000000000000000000005f52601260045260245ffd5b5f61202682611be6565b915061203183611be6565b92508261204157612040611fef565b5b828204905092915050565b5f61205682611be6565b915061206183611be6565b92508261207157612070611fef565b5b828206905092915050565b5f60408201905061208f5f830185611c17565b61209c6020830184611bef565b9392505050565b6120ac816119d4565b81146120b6575f5ffd5b50565b5f815190506120c7816120a3565b92915050565b5f602082840312156120e2576120e1611870565b5b5f6120ef848285016120b9565b91505092915050565b5f82825260208201905092915050565b7f546f6b656e207472616e73666572206661696c656400000000000000000000005f82015250565b5f61213c6015836120f8565b915061214782612108565b602082019050919050565b5f6020820190508181035f83015261216981612130565b905091905056fea26469706673582212206d16cae3b4cec46edc3922ee17b38b2916e05505b8f9e7ebcae53ceb6f938a9164736f6c634300081e0033",
  "linkReferences": {},
  "deployedLinkReferences": {},
  "immutableReferences": {},
  "inputSourceName": "project/contracts/Ascent.sol",
  "buildInfoId": "796a89b7a6c0e72582b04e7054859ee1f63d5d60"
}