{
  "_format": "hh3-artifact-1",
  "contractName": "AscentRegistry",
  "sourceName": "contracts/AscentRegistry.sol",
  "abi": [
    {
      "inputs": [
        {
          "internalType": "address",
          "name": "_implementation",
          "type": "address"
        }
      ],
      "stateMutability": "nonpayable",
      "type": "constructor"
    },
    {
      "inputs": [],
      "name": "BeneficiaryMappingAlreadyExists",
      "type": "error"
    },
    {
      "inputs": [],
      "name": "BeneficiaryMappingNotFound",
      "type": "error"
    },
    {
      "inputs": [],
      "name": "ImplementationCannotBeZeroAddress",
      "type": "error"
    },
    {
      "inputs": [],
      "name": "InvalidAscentContract",
      "type": "error"
    },
    {
      "inputs": [],
      "name": "OnlyAscentContractCanCall",
      "type": "error"
    },
    {
      "inputs": [
        {
          "internalType": "address",
          "name": "owner",
          "type": "address"
        }
      ],
      "name": "OwnableInvalidOwner",
      "type": "error"
    },
    {
      "inputs": [
        {
          "internalType": "address",
          "name": "account",
          "type": "address"
        }
      ],
      "name": "OwnableUnauthorizedAccount",
      "type": "error"
    },
    {
      "anonymous": false,
      "inputs": [
        {
          "indexed": true,
          "internalType": "address",
          "name": "owner",
          "type": "address"
        },
        {
          "indexed": false,
          "internalType": "address",
          "name": "ascent",
          "type": "address"
        }
      ],
      "name": "AscentCreated",
      "type": "event"
    },
    {
      "anonymous": false,
      "inputs": [
        {
          "indexed": true,
          "internalType": "address",
          "name": "grantor",
          "type": "address"
        },
        {
          "indexed": true,
          "internalType": "address",
          "name": "beneficiary",
          "type": "address"
        },
        {
          "indexed": false,
          "internalType": "address",
          "name": "ascentContract",
          "type": "address"
        }
      ],
      "name": "BeneficiaryAdded",
      "type": "event"
    },
    {
      "anonymous": false,
      "inputs": [
        {
          "indexed": true,
          "internalType": "address",
          "name": "grantor",
          "type": "address"
        },
        {
          "indexed": true,
          "internalType": "address",
          "name": "beneficiary",
          "type": "address"
        },
        {
          "indexed": false,
          "internalType": "address",
          "name": "ascentContract",
          "type": "address"
        }
      ],
      "name": "BeneficiaryRemoved",
      "type": "event"
    },
    {
      "anonymous": false,
      "inputs": [
        {
          "indexed": true,
          "internalType": "address",
          "name": "previousOwner",
          "type": "address"
        },
        {
          "indexed": true,
          "internalType": "address",
          "name": "newOwner",
          "type": "address"
        }
      ],
      "name": "OwnershipTransferred",
      "type": "event"
    },
    {
      "inputs": [
        {
          "internalType": "uint256",
          "name": "",
          "type": "uint256"
        }
      ],
      "name": "allAscents",
      "outputs": [
        {
          "internalType": "address",
          "name": "",
          "type": "address"
        }
      ],
      "stateMutability": "view",
      "type": "function"
    },
    {
      "inputs": [
        {
          "internalType": "address",
          "name": "",
          "type": "address"
        },
        {
          "internalType": "uint256",
          "name": "",
          "type": "uint256"
        }
      ],
      "name": "beneficiaryToGrantors",
      "outputs": [
        {
          "internalType": "address",
          "name": "",
          "type": "address"
        }
      ],
      "stateMutability": "view",
      "type": "function"
    },
    {
      "inputs": [
        {
          "internalType": "address",
          "name": "_grantor",
          "type": "address"
        },
        {
          "internalType": "address[]",
          "name": "_beneficiaries",
          "type": "address[]"
        },
        {
          "internalType": "enum IAscent.CheckInInterval",
          "name": "_checkInInterval",
          "type": "uint8"
        }
      ],
      "name": "createAscent",
      "outputs": [
        {
          "internalType": "address",
          "name": "ascent",
          "type": "address"
        }
      ],
      "stateMutability": "nonpayable",
      "type": "function"
    },
    {
      "inputs": [
        {
          "internalType": "address",
          "name": "_grantor",
          "type": "address"
        }
      ],
      "name": "getAscentsByGrantor",
      "outputs": [
        {
          "internalType": "address[]",
          "name": "",
          "type": "address[]"
        }
      ],
      "stateMutability": "view",
      "type": "function"
    },
    {
      "inputs": [
        {
          "internalType": "address",
          "name": "_grantor",
          "type": "address"
        }
      ],
      "name": "getBeneficiariesByGrantor",
      "outputs": [
        {
          "internalType": "address[]",
          "name": "",
          "type": "address[]"
        }
      ],
      "stateMutability": "view",
      "type": "function"
    },
    {
      "inputs": [
        {
          "internalType": "address",
          "name": "_beneficiary",
          "type": "address"
        }
      ],
      "name": "getGrantorsByBeneficiary",
      "outputs": [
        {
          "internalType": "address[]",
          "name": "",
          "type": "address[]"
        }
      ],
      "stateMutability": "view",
      "type": "function"
    },
    {
      "inputs": [],
      "name": "getTotalAscents",
      "outputs": [
        {
          "internalType": "uint256",
          "name": "",
          "type": "uint256"
        }
      ],
      "stateMutability": "view",
      "type": "function"
    },
    {
      "inputs": [
        {
          "internalType": "address",
          "name": "",
          "type": "address"
        },
        {
          "internalType": "uint256",
          "name": "",
          "type": "uint256"
        }
      ],
      "name": "grantorAscents",
      "outputs": [
        {
          "internalType": "address",
          "name": "",
          "type": "address"
        }
      ],
      "stateMutability": "view",
      "type": "function"
    },
    {
      "inputs": [
        {
          "internalType": "address",
          "name": "",
          "type": "address"
        },
        {
          "internalType": "uint256",
          "name": "",
          "type": "uint256"
        }
      ],
      "name": "grantorToBeneficiaries",
      "outputs": [
        {
          "internalType": "address",
          "name": "",
          "type": "address"
        }
      ],
      "stateMutability": "view",
      "type": "function"
    },
    {
      "inputs": [],
      "name": "implementationContract",
      "outputs": [
        {
          "internalType": "address",
          "name": "",
          "type": "address"
        }
      ],
      "stateMutability": "view",
      "type": "function"
    },
    {
      "inputs": [
        {
          "internalType": "address",
          "name": "",
          "type": "address"
        },
        {
          "internalType": "address",
          "name": "",
          "type": "address"
        }
      ],
      "name": "isGrantorBeneficiaryPair",
      "outputs": [
        {
          "internalType": "bool",
          "name": "",
          "type": "bool"
        }
      ],
      "stateMutability": "view",
      "type": "function"
    },
    {
      "inputs": [
        {
          "internalType": "address",
          "name": "_grantor",
          "type": "address"
        },
        {
          "internalType": "address",
          "name": "_beneficiary",
          "type": "address"
        }
      ],
      "name": "isGrantorBeneficiaryRelationship",
      "outputs": [
        {
          "internalType": "bool",
          "name": "",
          "type": "bool"
        }
      ],
      "stateMutability": "view",
      "type": "function"
    },
    {
      "inputs": [
        {
          "internalType": "address",
          "name": "",
          "type": "address"
        }
      ],
      "name": "isValidAscentContract",
      "outputs": [
        {
          "internalType": "bool",
          "name": "",
          "type": "bool"
        }
      ],
      "stateMutability": "view",
      "type": "function"
    },
    {
      "inputs": [
        {
          "internalType": "address",
          "name": "_grantor",
          "type": "address"
        },
        {
          "internalType": "address",
          "name": "_beneficiary",
          "type": "address"
        }
      ],
      "name": "notifyBeneficiaryAdded",
      "outputs": [],
      "stateMutability": "nonpayable",
      "type": "function"
    },
    {
      "inputs": [
        {
          "internalType": "address",
          "name": "_grantor",
          "type": "address"
        },
        {
          "internalType": "address",
          "name": "_beneficiary",
          "type": "address"
        }
      ],
      "name": "notifyBeneficiaryRemoved",
      "outputs": [],
      "stateMutability": "nonpayable",
      "type": "function"
    },
    {
      "inputs": [],
      "name": "owner",
      "outputs": [
        {
          "internalType": "address",
          "name": "",
          "type": "address"
        }
      ],
      "stateMutability": "view",
      "type": "function"
    },
    {
      "inputs": [],
      "name": "renounceOwnership",
      "outputs": [],
      "stateMutability": "nonpayable",
      "type": "function"
    },
    {
      "inputs": [
        {
          "internalType": "address",
          "name": "newOwner",
          "type": "address"
        }
      ],
      "name": "transferOwnership",
      "outputs": [],
      "stateMutability": "nonpayable",
      "type": "function"
    },
    {
      "inputs": [
        {
          "internalType": "address",
          "name": "_newImplementation",
          "type": "address"
        }
      ],
      "name": "updateImplementation",
      "outputs": [],
      "stateMutability": "nonpayable",
      "type": "function"
    }
  ],
  "bytecode": "0x608060405234801561000f575f5ffd5b5060405161141c38038061141c83398101604081905261002e916100f8565b338061005357604051631e4fbdf760e01b81525f600482015260240160405180910390fd5b61005c816100a9565b506001600160a01b03811661008457604051630760838f60e01b815260040160405180910390fd5b600180546001600160a01b0319166001600160a01b0392909216919091179055610125565b5f80546001600160a01b038381166001600160a01b0319831681178455604051919092169283917f8be0079c531659141344cd1fd0a4f28419497f9722a3daafe3b4186f6b6457e09190a35050565b5f60208284031215610108575f5ffd5b81516001600160a01b038116811461011e575f5ffd5b9392505050565b6112ea806101325f395ff3fe608060405234801561000f575f5ffd5b506004361061011c575f3560e01c80636e5b9ce8116100a9578063c4ff75251161006e578063c4ff75251461027f578063d278495814610292578063f2fde38b146102a5578063f55a795a146102b8578063feaf0811146102cb575f5ffd5b80636e5b9ce81461021f578063715018a6146102415780638da5cb5b1461024957806399e7d05614610259578063addd239a1461026c575f5ffd5b80632fa84551116100ef5780632fa84551146101b357806335ac7d1b146101d3578063691dcbca146101e65780636a8a03e5146101f95780636d1652811461020c575f5ffd5b8063025b22bc1461012057806313783d7a1461013557806315b89efa146101775780631b3a939a146101a2575b5f5ffd5b61013361012e366004610c17565b6102de565b005b610162610143366004610c37565b600660209081525f928352604080842090915290825290205460ff1681565b60405190151581526020015b60405180910390f35b61018a610185366004610c68565b61032f565b6040516001600160a01b03909116815260200161016e565b60035460405190815260200161016e565b6101c66101c1366004610c17565b610363565b60405161016e9190610cd3565b6101c66101e1366004610c17565b6103d6565b61018a6101f4366004610c68565b610447565b610133610207366004610c37565b610460565b61013361021a366004610c37565b610526565b61016261022d366004610c17565b60076020525f908152604090205460ff1681565b6101336105e5565b5f546001600160a01b031661018a565b60015461018a906001600160a01b031681565b6101c661027a366004610c17565b6105f8565b61018a61028d366004610c68565b610669565b61018a6102a0366004610ce5565b610682565b6101336102b3366004610c17565b6106aa565b6101626102c6366004610c37565b6106ec565b61018a6102d9366004610d1e565b61071b565b6102e66108a4565b6001600160a01b03811661030d57604051630760838f60e01b815260040160405180910390fd5b600180546001600160a01b0319166001600160a01b0392909216919091179055565b6005602052815f5260405f208181548110610348575f80fd5b5f918252602090912001546001600160a01b03169150829050565b6001600160a01b0381165f908152600260209081526040918290208054835181840281018401909452808452606093928301828280156103ca57602002820191905f5260205f20905b81546001600160a01b031681526001909101906020018083116103ac575b50505050509050919050565b6001600160a01b0381165f908152600460209081526040918290208054835181840281018401909452808452606093928301828280156103ca57602002820191905f5260205f209081546001600160a01b031681526001909101906020018083116103ac5750505050509050919050565b6004602052815f5260405f208181548110610348575f80fd5b335f9081526007602052604090205460ff1661048f576040516384cd2ddf60e01b815260040160405180910390fd5b6001600160a01b038083165f9081526006602090815260408083209385168352929052205460ff166104d457604051634678bfa160e11b815260040160405180910390fd5b6104de82826108d0565b6040513381526001600160a01b0380831691908416907f4474ebfaa14d03e960edc6a031e7fcf2feb4226bdb96346c5cae76e68a6ee903906020015b60405180910390a35050565b335f9081526007602052604090205460ff16610555576040516384cd2ddf60e01b815260040160405180910390fd5b6001600160a01b038083165f9081526006602090815260408083209385168352929052205460ff161561059b5760405163d17fa44b60e01b815260040160405180910390fd5b6105a58282610b1c565b6040513381526001600160a01b0380831691908416907f571635fb7732bb7e25fb0067ef4dc4b0375733b94925e61911849da03a8ea6629060200161051a565b6105ed6108a4565b6105f65f610ba0565b565b6001600160a01b0381165f908152600560209081526040918290208054835181840281018401909452808452606093928301828280156103ca57602002820191905f5260205f209081546001600160a01b031681526001909101906020018083116103ac5750505050509050919050565b6002602052815f5260405f208181548110610348575f80fd5b60038181548110610691575f80fd5b5f918252602090912001546001600160a01b0316905081565b6106b26108a4565b6001600160a01b0381166106e057604051631e4fbdf760e01b81525f60048201526024015b60405180910390fd5b6106e981610ba0565b50565b6001600160a01b038083165f9081526006602090815260408083209385168352929052205460ff165b92915050565b5f5f84848460405160240161073293929190610e0a565b60408051601f198184030181529181526020820180516001600160e01b0316632dac3b2160e01b17905260015490519192506001600160a01b031690829061077990610bef565b610784929190610e59565b604051809103905ff08015801561079d573d5f5f3e3d5ffd5b50335f9081526002602090815260408083208054600181810183559185528385200180546001600160a01b0387166001600160a01b03199182168117909255600380548085019091557fc2575a0e9e593c00f959f8c92f12db2869c3395a3b0502d05e2516446f71f85b01805490911682179055845260079092528220805460ff191690911790559092505b845181101561085d576108558686838151811061084857610848610e9d565b6020026020010151610b1c565b600101610829565b506040516001600160a01b038316815233907f9373c18dda6f23a6e62081b2fe38edfcab73bdc63ecf19408a8b47ae4f4686bb9060200160405180910390a2509392505050565b5f546001600160a01b031633146105f65760405163118cdaa760e01b81523360048201526024016106d7565b6001600160a01b0382165f908152600460205260408120905b81548110156109dc57826001600160a01b031682828154811061090e5761090e610e9d565b5f918252602090912001546001600160a01b0316036109d4578154829061093790600190610eb1565b8154811061094757610947610e9d565b905f5260205f20015f9054906101000a90046001600160a01b031682828154811061097457610974610e9d565b905f5260205f20015f6101000a8154816001600160a01b0302191690836001600160a01b03160217905550818054806109af576109af610ed0565b5f8281526020902081015f1990810180546001600160a01b03191690550190556109dc565b6001016108e9565b506001600160a01b0382165f908152600560205260408120905b8154811015610ae957846001600160a01b0316828281548110610a1b57610a1b610e9d565b5f918252602090912001546001600160a01b031603610ae15781548290610a4490600190610eb1565b81548110610a5457610a54610e9d565b905f5260205f20015f9054906101000a90046001600160a01b0316828281548110610a8157610a81610e9d565b905f5260205f20015f6101000a8154816001600160a01b0302191690836001600160a01b0316021790555081805480610abc57610abc610ed0565b5f8281526020902081015f1990810180546001600160a01b0319169055019055610ae9565b6001016109f6565b5050506001600160a01b039182165f9081526006602090815260408083209390941682529190915220805460ff19169055565b6001600160a01b039182165f8181526004602090815260408083208054600180820183559185528385200180546001600160a01b03199081169790981696871790558584526005835281842080548083018255908552838520018054909716851790965592825260068152828220938252929092529020805460ff19169091179055565b5f80546001600160a01b038381166001600160a01b0319831681178455604051919092169283917f8be0079c531659141344cd1fd0a4f28419497f9722a3daafe3b4186f6b6457e09190a35050565b6103d080610ee583390190565b80356001600160a01b0381168114610c12575f5ffd5b919050565b5f60208284031215610c27575f5ffd5b610c3082610bfc565b9392505050565b5f5f60408385031215610c48575f5ffd5b610c5183610bfc565b9150610c5f60208401610bfc565b90509250929050565b5f5f60408385031215610c79575f5ffd5b610c8283610bfc565b946020939093013593505050565b5f8151808452602084019350602083015f5b82811015610cc95781516001600160a01b0316865260209586019590910190600101610ca2565b5093949350505050565b602081525f610c306020830184610c90565b5f60208284031215610cf5575f5ffd5b5035919050565b634e487b7160e01b5f52604160045260245ffd5b803560058110610c12575f5ffd5b5f5f5f60608486031215610d30575f5ffd5b610d3984610bfc565b9250602084013567ffffffffffffffff811115610d54575f5ffd5b8401601f81018613610d64575f5ffd5b803567ffffffffffffffff811115610d7e57610d7e610cfc565b8060051b604051601f19603f830116810181811067ffffffffffffffff82111715610dab57610dab610cfc565b604052918252602081840181019290810189841115610dc8575f5ffd5b6020850194505b83851015610dee57610de085610bfc565b815260209485019401610dcf565b509450610e019250505060408501610d10565b90509250925092565b6001600160a01b03841681526060602082018190525f90610e2d90830185610c90565b905060058310610e4b57634e487b7160e01b5f52602160045260245ffd5b826040830152949350505050565b60018060a01b0383168152604060208201525f82518060408401528060208501606085015e5f606082850101526060601f19601f8301168401019150509392505050565b634e487b7160e01b5f52603260045260245ffd5b8181038181111561071557634e487b7160e01b5f52601160045260245ffd5b634e487b7160e01b5f52603160045260245ffdfe60806040526040516103d03803806103d08339810160408190526100229161023c565b61002c8282610033565b5050610321565b61003c82610091565b6040516001600160a01b038316907fbc7cd75a20ee27fd9adebab32041f755214dbc6bffa90cc0225b39da2e5c2d3b905f90a280511561008557610080828261010c565b505050565b61008d61017f565b5050565b806001600160a01b03163b5f036100cb57604051634c9c8ce360e01b81526001600160a01b03821660048201526024015b60405180910390fd5b7f360894a13ba1a3210667c828492db98dca3e2076cc3735a920a3ca505d382bbc80546001600160a01b0319166001600160a01b0392909216919091179055565b60605f5f846001600160a01b031684604051610128919061030b565b5f60405180830381855af49150503d805f8114610160576040519150601f19603f3d011682016040523d82523d5f602084013e610165565b606091505b5090925090506101768583836101a0565b95945050505050565b341561019e5760405163b398979f60e01b815260040160405180910390fd5b565b6060826101b5576101b0826101ff565b6101f8565b81511580156101cc57506001600160a01b0384163b155b156101f557604051639996b31560e01b81526001600160a01b03851660048201526024016100c2565b50805b9392505050565b80511561020f5780518082602001fd5b60405163d6bda27560e01b815260040160405180910390fd5b634e487b7160e01b5f52604160045260245ffd5b5f5f6040838503121561024d575f5ffd5b82516001600160a01b0381168114610263575f5ffd5b60208401519092506001600160401b0381111561027e575f5ffd5b8301601f8101851361028e575f5ffd5b80516001600160401b038111156102a7576102a7610228565b604051601f8201601f19908116603f011681016001600160401b03811182821017156102d5576102d5610228565b6040528181528282016020018710156102ec575f5ffd5b8160208401602083015e5f602083830101528093505050509250929050565b5f82518060208501845e5f920191825250919050565b60a38061032d5f395ff3fe6080604052600a600c565b005b60186014601a565b6050565b565b5f604b7f360894a13ba1a3210667c828492db98dca3e2076cc3735a920a3ca505d382bbc546001600160a01b031690565b905090565b365f5f375f5f365f845af43d5f5f3e8080156069573d5ff35b3d5ffdfea2646970667358221220e2be00dda8d343839bd16227ddc55fa7af0952ec858c8fe7246d5240a099583164736f6c634300081c0033a2646970667358221220728b88ff940e1470614ccdab1c892aaaa7b1ea12393ce86b884243d2cc170c1964736f6c634300081c0033",
  "linkReferences": {},
  "deployedLinkReferences": {},
  "immutableReferences": {},
  "inputSourceName": "project/contracts/AscentRegistry.sol",
  "buildInfoId": "435326dbf7df2f6d8f1c3400427921b2068a00ce"
}