{
  "_format": "hh3-artifact-1",
  "contractName": "Ascent",
  "sourceName": "contracts/Ascent.sol",
  "abi": [
    {
      "inputs": [],
      "stateMutability": "nonpayable",
      "type": "constructor"
    },
    {
      "inputs": [],
      "name": "BeneficiaryAlreadyExists",
      "type": "error"
    },
    {
      "inputs": [],
      "name": "BeneficiaryNotFound",
      "type": "error"
    },
    {
      "inputs": [],
      "name": "HeartbeatExpiredCannotCheckIn",
      "type": "error"
    },
    {
      "inputs": [],
      "name": "InvalidBeneficiaryAddress",
      "type": "error"
    },
    {
      "inputs": [],
      "name": "InvalidCheckInInterval",
      "type": "error"
    },
    {
      "inputs": [],
      "name": "InvalidInitialization",
      "type": "error"
    },
    {
      "inputs": [],
      "name": "NotInitializing",
      "type": "error"
    },
    {
      "inputs": [
        {
          "internalType": "address",
          "name": "owner",
          "type": "address"
        }
      ],
      "name": "OwnableInvalidOwner",
      "type": "error"
    },
    {
      "inputs": [
        {
          "internalType": "address",
          "name": "account",
          "type": "address"
        }
      ],
      "name": "OwnableUnauthorizedAccount",
      "type": "error"
    },
    {
      "anonymous": false,
      "inputs": [
        {
          "indexed": true,
          "internalType": "address",
          "name": "grantor",
          "type": "address"
        },
        {
          "indexed": false,
          "internalType": "uint256",
          "name": "timestamp",
          "type": "uint256"
        }
      ],
      "name": "CheckIn",
      "type": "event"
    },
    {
      "anonymous": false,
      "inputs": [
        {
          "indexed": false,
          "internalType": "uint256",
          "name": "timestamp",
          "type": "uint256"
        }
      ],
      "name": "DeadMansSwitchTriggered",
      "type": "event"
    },
    {
      "anonymous": false,
      "inputs": [
        {
          "indexed": false,
          "internalType": "uint64",
          "name": "version",
          "type": "uint64"
        }
      ],
      "name": "Initialized",
      "type": "event"
    },
    {
      "anonymous": false,
      "inputs": [
        {
          "indexed": true,
          "internalType": "address",
          "name": "previousOwner",
          "type": "address"
        },
        {
          "indexed": true,
          "internalType": "address",
          "name": "newOwner",
          "type": "address"
        }
      ],
      "name": "OwnershipTransferred",
      "type": "event"
    },
    {
      "inputs": [
        {
          "internalType": "address",
          "name": "_beneficiary",
          "type": "address"
        }
      ],
      "name": "addBeneficiary",
      "outputs": [],
      "stateMutability": "nonpayable",
      "type": "function"
    },
    {
      "inputs": [
        {
          "internalType": "uint256",
          "name": "",
          "type": "uint256"
        }
      ],
      "name": "beneficiaries",
      "outputs": [
        {
          "internalType": "address",
          "name": "",
          "type": "address"
        }
      ],
      "stateMutability": "view",
      "type": "function"
    },
    {
      "inputs": [],
      "name": "checkIn",
      "outputs": [],
      "stateMutability": "nonpayable",
      "type": "function"
    },
    {
      "inputs": [],
      "name": "checkInInterval",
      "outputs": [
        {
          "internalType": "enum IAscent.CheckInInterval",
          "name": "",
          "type": "uint8"
        }
      ],
      "stateMutability": "view",
      "type": "function"
    },
    {
      "inputs": [],
      "name": "getBeneficiaries",
      "outputs": [
        {
          "internalType": "address[]",
          "name": "",
          "type": "address[]"
        }
      ],
      "stateMutability": "view",
      "type": "function"
    },
    {
      "inputs": [],
      "name": "getBeneficiaryCount",
      "outputs": [
        {
          "internalType": "uint256",
          "name": "",
          "type": "uint256"
        }
      ],
      "stateMutability": "view",
      "type": "function"
    },
    {
      "inputs": [],
      "name": "getNextCheckInDeadline",
      "outputs": [
        {
          "internalType": "uint256",
          "name": "",
          "type": "uint256"
        }
      ],
      "stateMutability": "view",
      "type": "function"
    },
    {
      "inputs": [],
      "name": "getTimeRemaining",
      "outputs": [
        {
          "internalType": "uint256",
          "name": "",
          "type": "uint256"
        }
      ],
      "stateMutability": "view",
      "type": "function"
    },
    {
      "inputs": [],
      "name": "hasHeartbeatExpired",
      "outputs": [
        {
          "internalType": "bool",
          "name": "",
          "type": "bool"
        }
      ],
      "stateMutability": "view",
      "type": "function"
    },
    {
      "inputs": [
        {
          "internalType": "address",
          "name": "_grantor",
          "type": "address"
        },
        {
          "internalType": "address[]",
          "name": "_beneficiaries",
          "type": "address[]"
        },
        {
          "internalType": "enum IAscent.CheckInInterval",
          "name": "_checkInInterval",
          "type": "uint8"
        }
      ],
      "name": "initialize",
      "outputs": [],
      "stateMutability": "nonpayable",
      "type": "function"
    },
    {
      "inputs": [],
      "name": "lastCheckIn",
      "outputs": [
        {
          "internalType": "uint256",
          "name": "",
          "type": "uint256"
        }
      ],
      "stateMutability": "view",
      "type": "function"
    },
    {
      "inputs": [],
      "name": "owner",
      "outputs": [
        {
          "internalType": "address",
          "name": "",
          "type": "address"
        }
      ],
      "stateMutability": "view",
      "type": "function"
    },
    {
      "inputs": [],
      "name": "registry",
      "outputs": [
        {
          "internalType": "address",
          "name": "",
          "type": "address"
        }
      ],
      "stateMutability": "view",
      "type": "function"
    },
    {
      "inputs": [
        {
          "internalType": "address",
          "name": "_beneficiary",
          "type": "address"
        }
      ],
      "name": "removeBeneficiary",
      "outputs": [],
      "stateMutability": "nonpayable",
      "type": "function"
    },
    {
      "inputs": [],
      "name": "renounceOwnership",
      "outputs": [],
      "stateMutability": "nonpayable",
      "type": "function"
    },
    {
      "inputs": [
        {
          "internalType": "address",
          "name": "newOwner",
          "type": "address"
        }
      ],
      "name": "transferOwnership",
      "outputs": [],
      "stateMutability": "nonpayable",
      "type": "function"
    }
  ],
  "bytecode": "0x6080604052348015600e575f5ffd5b5060156019565b60c9565b7ff0c57e16840df040f15088dc2f81fe391c3923bec73e23a9662efc9c229c6a00805468010000000000000000900460ff161560685760405163f92ee8a960e01b815260040160405180910390fd5b80546001600160401b039081161460c65780546001600160401b0319166001600160401b0390811782556040519081527fc7f505b2f371ae2175ee4913f4499e1f2633a7b5936321eed1cdaeb6115181d29060200160405180910390a15b50565b610d5e806100d65f395ff3fe608060405234801561000f575f5ffd5b50600436106100fb575f3560e01c80638da5cb5b11610093578063dac6270d11610063578063dac6270d146101e6578063db78dabd146101ee578063efeb5e58146101f7578063f2fde38b1461020a575f5ffd5b80638da5cb5b146101a8578063913b722c146101b05780639a6e7fd1146101c5578063bfd25fa5146101cc575f5ffd5b806359633a1c116100ce57806359633a1c1461014c578063715018a61461015f5780637720b4bb146101675780637b1039991461017d575f5ffd5b8063183ff085146100ff5780631bfb23c3146101095780632dac3b21146101265780635926651d14610139575b5f5ffd5b61010761021d565b005b61011161029b565b60405190151581526020015b60405180910390f35b610107610134366004610b1e565b6102c1565b610107610147366004610c0a565b610408565b61010761015a366004610c0a565b610555565b610107610712565b61016f610725565b60405190815260200161011d565b600354610190906001600160a01b031681565b6040516001600160a01b03909116815260200161011d565b610190610748565b6101b8610776565b60405161011d9190610c2a565b5f5461016f565b6001546101d99060ff1681565b60405161011d9190610c89565b61016f6107d5565b61016f60025481565b610190610205366004610caf565b610815565b610107610218366004610c0a565b61083c565b61022561087e565b61022d61029b565b1561024b576040516393b4c60d60e01b815260040160405180910390fd5b42600255610257610748565b6001600160a01b03167fa864a8b988e604bb05d6ce75d53efabb5620c45b15380b7bd0c51dcfa71dda034260405161029191815260200190565b60405180910390a2565b6001545f906102ac9060ff166108b0565b6002546102b99190610cda565b421015905090565b5f6102ca61097e565b805490915060ff600160401b820416159067ffffffffffffffff165f811580156102f15750825b90505f8267ffffffffffffffff16600114801561030d5750303b155b90508115801561031b575080155b156103395760405163f92ee8a960e01b815260040160405180910390fd5b845467ffffffffffffffff19166001178555831561036357845460ff60401b1916600160401b1785555b61036c886109a8565b865161037e905f9060208a0190610a6f565b506001805487919060ff19168183600481111561039d5761039d610c75565b021790555042600255600380546001600160a01b0319163317905583156103fe57845460ff60401b19168555604051600181527fc7f505b2f371ae2175ee4913f4499e1f2633a7b5936321eed1cdaeb6115181d29060200160405180910390a15b5050505050505050565b61041061087e565b6001600160a01b038116610437576040516334d0f66160e21b815260040160405180910390fd5b5f5b5f5481101561049857816001600160a01b03165f828154811061045e5761045e610ced565b5f918252602090912001546001600160a01b03160361049057604051635e6379d760e01b815260040160405180910390fd5b600101610439565b505f80546001810182559080527f290decd9548b62a8d60345a988386fc84ba6bc95484008f6362f93160ef3e5630180546001600160a01b0319166001600160a01b038381169190911790915560035416636d1652816104f6610748565b6040516001600160e01b031960e084901b1681526001600160a01b03918216600482015290841660248201526044015f604051808303815f87803b15801561053c575f5ffd5b505af115801561054e573d5f5f3e3d5ffd5b5050505050565b61055d61087e565b6001600160a01b038116610584576040516334d0f66160e21b815260040160405180910390fd5b5f80805b5f548110156105da57836001600160a01b03165f82815481106105ad576105ad610ced565b5f918252602090912001546001600160a01b0316036105d257600192508091506105da565b600101610588565b50816105f95760405163694f351f60e01b815260040160405180910390fd5b5f805461060890600190610d01565b8154811061061857610618610ced565b5f91825260208220015481546001600160a01b0390911691908390811061064157610641610ced565b5f918252602082200180546001600160a01b0319166001600160a01b03939093169290921790915580548061067857610678610d14565b5f8281526020902081015f1990810180546001600160a01b03191690550190556003546001600160a01b0316636a8a03e56106b1610748565b6040516001600160e01b031960e084901b1681526001600160a01b03918216600482015290861660248201526044015f604051808303815f87803b1580156106f7575f5ffd5b505af1158015610709573d5f5f3e3d5ffd5b50505050505050565b61071a61087e565b6107235f6109b9565b565b6001545f906107369060ff166108b0565b6002546107439190610cda565b905090565b7f9016d09d72d40fdae2fd8ceac6b6234c7706214fd39c1cd1e609a0528c199300546001600160a01b031690565b60605f8054806020026020016040519081016040528092919081815260200182805480156107cb57602002820191905f5260205f20905b81546001600160a01b031681526001909101906020018083116107ad575b5050505050905090565b6001545f9081906107e89060ff166108b0565b6002546107f59190610cda565b9050804210610805575f91505090565b61080f4282610d01565b91505090565b5f8181548110610823575f80fd5b5f918252602090912001546001600160a01b0316905081565b61084461087e565b6001600160a01b03811661087257604051631e4fbdf760e01b81525f60048201526024015b60405180910390fd5b61087b816109b9565b50565b33610887610748565b6001600160a01b0316146107235760405163118cdaa760e01b8152336004820152602401610869565b5f808260048111156108c4576108c4610c75565b036108d3575062093a80919050565b60018260048111156108e7576108e7610c75565b036108f6575062127500919050565b600282600481111561090a5761090a610c75565b03610919575062278d00919050565b600382600481111561092d5761092d610c75565b0361093c575062ed4e00919050565b600482600481111561095057610950610c75565b0361096057506301e13380919050565b60405163ab257c7f60e01b815260040160405180910390fd5b919050565b5f807ff0c57e16840df040f15088dc2f81fe391c3923bec73e23a9662efc9c229c6a005b92915050565b6109b0610a29565b61087b81610a4e565b7f9016d09d72d40fdae2fd8ceac6b6234c7706214fd39c1cd1e609a0528c19930080546001600160a01b031981166001600160a01b03848116918217845560405192169182907f8be0079c531659141344cd1fd0a4f28419497f9722a3daafe3b4186f6b6457e0905f90a3505050565b610a31610a56565b61072357604051631afcd79f60e31b815260040160405180910390fd5b610844610a29565b5f610a5f61097e565b54600160401b900460ff16919050565b828054828255905f5260205f20908101928215610ac2579160200282015b82811115610ac257825182546001600160a01b0319166001600160a01b03909116178255602090920191600190910190610a8d565b50610ace929150610ad2565b5090565b5b80821115610ace575f8155600101610ad3565b80356001600160a01b0381168114610979575f5ffd5b634e487b7160e01b5f52604160045260245ffd5b803560058110610979575f5ffd5b5f5f5f60608486031215610b30575f5ffd5b610b3984610ae6565b9250602084013567ffffffffffffffff811115610b54575f5ffd5b8401601f81018613610b64575f5ffd5b803567ffffffffffffffff811115610b7e57610b7e610afc565b8060051b604051601f19603f830116810181811067ffffffffffffffff82111715610bab57610bab610afc565b604052918252602081840181019290810189841115610bc8575f5ffd5b6020850194505b83851015610bee57610be085610ae6565b815260209485019401610bcf565b509450610c019250505060408501610b10565b90509250925092565b5f60208284031215610c1a575f5ffd5b610c2382610ae6565b9392505050565b602080825282518282018190525f918401906040840190835b81811015610c6a5783516001600160a01b0316835260209384019390920191600101610c43565b509095945050505050565b634e487b7160e01b5f52602160045260245ffd5b6020810160058310610ca957634e487b7160e01b5f52602160045260245ffd5b91905290565b5f60208284031215610cbf575f5ffd5b5035919050565b634e487b7160e01b5f52601160045260245ffd5b808201808211156109a2576109a2610cc6565b634e487b7160e01b5f52603260045260245ffd5b818103818111156109a2576109a2610cc6565b634e487b7160e01b5f52603160045260245ffdfea2646970667358221220ebf64c09e09ead4d10bb760d98f74c38f84c6145a9cd4bef421a929ca043c4b664736f6c634300081e0033",
  "linkReferences": {},
  "deployedLinkReferences": {},
  "immutableReferences": {},
  "inputSourceName": "project/contracts/Ascent.sol",
  "buildInfoId": "e42c4b2b50a2e98c81147c0902474a44ece1761e"
}