{
  "_format": "hh3-artifact-1",
  "contractName": "UserVerification",
  "sourceName": "contracts/UserVerification.sol",
  "abi": [
    {
      "inputs": [
        {
          "internalType": "address",
          "name": "identityVerificationHubV2Address",
          "type": "address"
        },
        {
          "internalType": "uint256",
          "name": "scope",
          "type": "uint256"
        },
        {
          "internalType": "bytes32",
          "name": "_verificationConfigId",
          "type": "bytes32"
        }
      ],
      "stateMutability": "nonpayable",
      "type": "constructor"
    },
    {
      "inputs": [
        {
          "internalType": "string",
          "name": "expectedValue",
          "type": "string"
        },
        {
          "internalType": "string",
          "name": "actualValue",
          "type": "string"
        }
      ],
      "name": "DOBMismatch",
      "type": "error"
    },
    {
      "inputs": [
        {
          "internalType": "string",
          "name": "expectedValue",
          "type": "string"
        },
        {
          "internalType": "string",
          "name": "actualValue",
          "type": "string"
        }
      ],
      "name": "FirstNameMismatch",
      "type": "error"
    },
    {
      "inputs": [],
      "name": "InvalidDataFormat",
      "type": "error"
    },
    {
      "inputs": [
        {
          "internalType": "string",
          "name": "expectedValue",
          "type": "string"
        },
        {
          "internalType": "string",
          "name": "actualValue",
          "type": "string"
        }
      ],
      "name": "LastNameMismatch",
      "type": "error"
    },
    {
      "inputs": [
        {
          "internalType": "address",
          "name": "value",
          "type": "address"
        }
      ],
      "name": "LogAddress",
      "type": "error"
    },
    {
      "inputs": [
        {
          "internalType": "bool",
          "name": "value",
          "type": "bool"
        }
      ],
      "name": "LogBool",
      "type": "error"
    },
    {
      "inputs": [
        {
          "internalType": "bytes",
          "name": "value",
          "type": "bytes"
        }
      ],
      "name": "LogBytes",
      "type": "error"
    },
    {
      "inputs": [
        {
          "internalType": "string[]",
          "name": "namesArray",
          "type": "string[]"
        }
      ],
      "name": "LogError",
      "type": "error"
    },
    {
      "inputs": [
        {
          "internalType": "string",
          "name": "value",
          "type": "string"
        }
      ],
      "name": "LogString",
      "type": "error"
    },
    {
      "inputs": [
        {
          "internalType": "uint256",
          "name": "value",
          "type": "uint256"
        }
      ],
      "name": "LogUint",
      "type": "error"
    },
    {
      "inputs": [],
      "name": "UnauthorizedCaller",
      "type": "error"
    },
    {
      "anonymous": false,
      "inputs": [
        {
          "indexed": true,
          "internalType": "uint256",
          "name": "newScope",
          "type": "uint256"
        }
      ],
      "name": "ScopeUpdated",
      "type": "event"
    },
    {
      "anonymous": false,
      "inputs": [
        {
          "indexed": false,
          "internalType": "string",
          "name": "firstName",
          "type": "string"
        },
        {
          "indexed": false,
          "internalType": "string",
          "name": "lastName",
          "type": "string"
        },
        {
          "indexed": false,
          "internalType": "string",
          "name": "dob",
          "type": "string"
        }
      ],
      "name": "UserData",
      "type": "event"
    },
    {
      "anonymous": false,
      "inputs": [
        {
          "components": [
            {
              "internalType": "bytes32",
              "name": "attestationId",
              "type": "bytes32"
            },
            {
              "internalType": "uint256",
              "name": "userIdentifier",
              "type": "uint256"
            },
            {
              "internalType": "uint256",
              "name": "nullifier",
              "type": "uint256"
            },
            {
              "internalType": "uint256[4]",
              "name": "forbiddenCountriesListPacked",
              "type": "uint256[4]"
            },
            {
              "internalType": "string",
              "name": "issuingState",
              "type": "string"
            },
            {
              "internalType": "string[]",
              "name": "name",
              "type": "string[]"
            },
            {
              "internalType": "string",
              "name": "idNumber",
              "type": "string"
            },
            {
              "internalType": "string",
              "name": "nationality",
              "type": "string"
            },
            {
              "internalType": "string",
              "name": "dateOfBirth",
              "type": "string"
            },
            {
              "internalType": "string",
              "name": "gender",
              "type": "string"
            },
            {
              "internalType": "string",
              "name": "expiryDate",
              "type": "string"
            },
            {
              "internalType": "uint256",
              "name": "olderThan",
              "type": "uint256"
            },
            {
              "internalType": "bool[3]",
              "name": "ofac",
              "type": "bool[3]"
            }
          ],
          "indexed": false,
          "internalType": "struct ISelfVerificationRoot.GenericDiscloseOutputV2",
          "name": "output",
          "type": "tuple"
        },
        {
          "indexed": false,
          "internalType": "bytes",
          "name": "userData",
          "type": "bytes"
        }
      ],
      "name": "VerificationCompleted",
      "type": "event"
    },
    {
      "inputs": [
        {
          "internalType": "address",
          "name": "_address",
          "type": "address"
        }
      ],
      "name": "getBeneficiaryData",
      "outputs": [
        {
          "components": [
            {
              "internalType": "string",
              "name": "beneficiaryFirstName",
              "type": "string"
            },
            {
              "internalType": "string",
              "name": "beneficiaryLastName",
              "type": "string"
            },
            {
              "internalType": "string",
              "name": "beneficiaryDOB",
              "type": "string"
            }
          ],
          "internalType": "struct UserVerification.BeneficiaryInfo",
          "name": "",
          "type": "tuple"
        }
      ],
      "stateMutability": "view",
      "type": "function"
    },
    {
      "inputs": [
        {
          "internalType": "bytes32",
          "name": "destinationChainId",
          "type": "bytes32"
        },
        {
          "internalType": "bytes32",
          "name": "userIdentifier",
          "type": "bytes32"
        },
        {
          "internalType": "bytes",
          "name": "userDefinedData",
          "type": "bytes"
        }
      ],
      "name": "getConfigId",
      "outputs": [
        {
          "internalType": "bytes32",
          "name": "",
          "type": "bytes32"
        }
      ],
      "stateMutability": "view",
      "type": "function"
    },
    {
      "inputs": [],
      "name": "lastOutput",
      "outputs": [
        {
          "internalType": "bytes32",
          "name": "attestationId",
          "type": "bytes32"
        },
        {
          "internalType": "uint256",
          "name": "userIdentifier",
          "type": "uint256"
        },
        {
          "internalType": "uint256",
          "name": "nullifier",
          "type": "uint256"
        },
        {
          "internalType": "string",
          "name": "issuingState",
          "type": "string"
        },
        {
          "internalType": "string",
          "name": "idNumber",
          "type": "string"
        },
        {
          "internalType": "string",
          "name": "nationality",
          "type": "string"
        },
        {
          "internalType": "string",
          "name": "dateOfBirth",
          "type": "string"
        },
        {
          "internalType": "string",
          "name": "gender",
          "type": "string"
        },
        {
          "internalType": "string",
          "name": "expiryDate",
          "type": "string"
        },
        {
          "internalType": "uint256",
          "name": "olderThan",
          "type": "uint256"
        }
      ],
      "stateMutability": "view",
      "type": "function"
    },
    {
      "inputs": [],
      "name": "lastUserAddress",
      "outputs": [
        {
          "internalType": "address",
          "name": "",
          "type": "address"
        }
      ],
      "stateMutability": "view",
      "type": "function"
    },
    {
      "inputs": [],
      "name": "lastUserDOB",
      "outputs": [
        {
          "internalType": "string",
          "name": "",
          "type": "string"
        }
      ],
      "stateMutability": "view",
      "type": "function"
    },
    {
      "inputs": [],
      "name": "lastUserData",
      "outputs": [
        {
          "internalType": "bytes",
          "name": "",
          "type": "bytes"
        }
      ],
      "stateMutability": "view",
      "type": "function"
    },
    {
      "inputs": [],
      "name": "lastUserFirstName",
      "outputs": [
        {
          "internalType": "string",
          "name": "",
          "type": "string"
        }
      ],
      "stateMutability": "view",
      "type": "function"
    },
    {
      "inputs": [],
      "name": "lastUserLastName",
      "outputs": [
        {
          "internalType": "string",
          "name": "",
          "type": "string"
        }
      ],
      "stateMutability": "view",
      "type": "function"
    },
    {
      "inputs": [
        {
          "internalType": "bytes",
          "name": "output",
          "type": "bytes"
        },
        {
          "internalType": "bytes",
          "name": "userData",
          "type": "bytes"
        }
      ],
      "name": "onVerificationSuccess",
      "outputs": [],
      "stateMutability": "nonpayable",
      "type": "function"
    },
    {
      "inputs": [],
      "name": "resetTestState",
      "outputs": [],
      "stateMutability": "nonpayable",
      "type": "function"
    },
    {
      "inputs": [],
      "name": "scope",
      "outputs": [
        {
          "internalType": "uint256",
          "name": "",
          "type": "uint256"
        }
      ],
      "stateMutability": "view",
      "type": "function"
    },
    {
      "inputs": [
        {
          "internalType": "bytes32",
          "name": "configId",
          "type": "bytes32"
        }
      ],
      "name": "setConfigId",
      "outputs": [],
      "stateMutability": "nonpayable",
      "type": "function"
    },
    {
      "inputs": [
        {
          "internalType": "uint256",
          "name": "newScope",
          "type": "uint256"
        }
      ],
      "name": "setScope",
      "outputs": [],
      "stateMutability": "nonpayable",
      "type": "function"
    },
    {
      "inputs": [
        {
          "components": [
            {
              "internalType": "bool",
              "name": "olderThanEnabled",
              "type": "bool"
            },
            {
              "internalType": "uint256",
              "name": "olderThan",
              "type": "uint256"
            },
            {
              "internalType": "bool",
              "name": "forbiddenCountriesEnabled",
              "type": "bool"
            },
            {
              "internalType": "uint256[4]",
              "name": "forbiddenCountriesListPacked",
              "type": "uint256[4]"
            },
            {
              "internalType": "bool[3]",
              "name": "ofacEnabled",
              "type": "bool[3]"
            }
          ],
          "internalType": "struct SelfStructs.VerificationConfigV2",
          "name": "config",
          "type": "tuple"
        }
      ],
      "name": "setVerificationConfig",
      "outputs": [],
      "stateMutability": "nonpayable",
      "type": "function"
    },
    {
      "inputs": [
        {
          "components": [
            {
              "internalType": "bool",
              "name": "olderThanEnabled",
              "type": "bool"
            },
            {
              "internalType": "uint256",
              "name": "olderThan",
              "type": "uint256"
            },
            {
              "internalType": "bool",
              "name": "forbiddenCountriesEnabled",
              "type": "bool"
            },
            {
              "internalType": "uint256[4]",
              "name": "forbiddenCountriesListPacked",
              "type": "uint256[4]"
            },
            {
              "internalType": "bool[3]",
              "name": "ofacEnabled",
              "type": "bool[3]"
            }
          ],
          "internalType": "struct SelfStructs.VerificationConfigV2",
          "name": "config",
          "type": "tuple"
        }
      ],
      "name": "setVerificationConfigNoHub",
      "outputs": [],
      "stateMutability": "nonpayable",
      "type": "function"
    },
    {
      "inputs": [
        {
          "internalType": "bytes",
          "name": "output",
          "type": "bytes"
        },
        {
          "internalType": "bytes",
          "name": "userData",
          "type": "bytes"
        }
      ],
      "name": "testOnVerificationSuccess",
      "outputs": [],
      "stateMutability": "nonpayable",
      "type": "function"
    },
    {
      "inputs": [],
      "name": "verificationConfig",
      "outputs": [
        {
          "internalType": "bool",
          "name": "olderThanEnabled",
          "type": "bool"
        },
        {
          "internalType": "uint256",
          "name": "olderThan",
          "type": "uint256"
        },
        {
          "internalType": "bool",
          "name": "forbiddenCountriesEnabled",
          "type": "bool"
        }
      ],
      "stateMutability": "view",
      "type": "function"
    },
    {
      "inputs": [],
      "name": "verificationConfigId",
      "outputs": [
        {
          "internalType": "bytes32",
          "name": "",
          "type": "bytes32"
        }
      ],
      "stateMutability": "view",
      "type": "function"
    },
    {
      "inputs": [],
      "name": "verificationSuccessful",
      "outputs": [
        {
          "internalType": "bool",
          "name": "",
          "type": "bool"
        }
      ],
      "stateMutability": "view",
      "type": "function"
    },
    {
      "inputs": [
        {
          "internalType": "bytes",
          "name": "proofPayload",
          "type": "bytes"
        },
        {
          "internalType": "bytes",
          "name": "userContextData",
          "type": "bytes"
        }
      ],
      "name": "verifySelfProof",
      "outputs": [],
      "stateMutability": "nonpayable",
      "type": "function"
    }
  ],
  "bytecode": "0x60a060405234801561000f575f5ffd5b5060405161232438038061232483398101604081905261002e91610046565b6001600160a01b039092166080525f55601b55610085565b5f5f5f60608486031215610058575f5ffd5b83516001600160a01b038116811461006e575f5ffd5b602085015160409095015190969495509392505050565b6080516122796100ab5f395f818161034d015281816104e30152610de901526122795ff3fe608060405234801561000f575f5ffd5b5060043610610126575f3560e01c80638d2d8d6a116100a9578063b4ba6ff91161006e578063b4ba6ff914610278578063b8ed49441461028b578063bb443744146102ab578063c385abae146102b4578063d161802b146102c7575f5ffd5b80638d2d8d6a1461021f5780638f6112cb1461023257806394c189f71461023a57806397228a7e14610242578063ada1b31914610260575f5ffd5b806348025b33116100ef57806348025b33146101ab5780635417c755146101b35780636476a0fa146101de5780636e62d0a8146101f15780637793a84314610202575f5ffd5b80623bc35c1461012a578063037b410e1461013f578063048e63881461017b57806311e37ed01461018e5780633fe3a0f3146101a3575b5f5ffd5b61013d6101383660046114ba565b6102da565b005b6013546014546015546101579260ff90811692911683565b60408051931515845260208401929092521515908201526060015b60405180910390f35b61013d6101893660046115de565b6103c8565b6101966103d2565b604051610172919061166f565b61019661045e565b61019661046b565b601c546101c6906001600160a01b031681565b6040516001600160a01b039091168152602001610172565b61013d6101ec3660046114ba565b610478565b5f545b604051908152602001610172565b60015461020f9060ff1681565b6040519015158152602001610172565b61013d61022d3660046115de565b6104d8565b610196610547565b61013d610554565b61024a610773565b6040516101729a99989796959493929190611688565b6101f461026e36600461172a565b601b549392505050565b61013d610286366004611775565b610ad4565b61029e61029936600461178c565b610ae0565b60405161017291906117b2565b6101f4601b5481565b61013d6102c2366004611775565b601b55565b61013d6102d5366004611855565b610cdb565b80516013805491151560ff1992831617815560208301516014556040830151601580549115159190931617909155606082015182919061031e906016906004611247565b5060808201516103349060078301906003611285565b50506040516309ddb09160e01b81526001600160a01b037f00000000000000000000000000000000000000000000000000000000000000001691506309ddb09190610384906013906004016118bf565b6020604051808303815f875af11580156103a0573d5f5f3e3d5ffd5b505050506040513d601f19601f820116820180604052508101906103c49190611948565b5050565b6103c482826104d8565b601280546103df9061195f565b80601f016020809104026020016040519081016040528092919081815260200182805461040b9061195f565b80156104565780601f1061042d57610100808354040283529160200191610456565b820191905f5260205f20905b81548152906001019060200180831161043957829003601f168201915b505050505081565b601d80546103df9061195f565b601e80546103df9061195f565b80516013805491151560ff199283161781556020830151601455604083015160158054911515919093161790915560608201518291906104bc906016906004611247565b5060808201516104d29060078301906003611285565b50505050565b336001600160a01b037f0000000000000000000000000000000000000000000000000000000000000000161461052157604051635c427cd960e01b815260040160405180910390fd5b5f828060200190518101906105369190611b17565b90506105428183610e91565b505050565b601f80546103df9061195f565b6001805460ff19169055604080516101a0810182525f80825260208083018290528284018290528351608080820186528382528183018490528186018490526060808301859052850191909152845191820185529181528183015282516003808252918101909352909160a0830191816020015b60608152602001906001900390816105c8575050815260408051602080820183525f808352818501929092528251808201845282815283850152825180820184528281526060808601919091528351808301855283815260808601528351808301855283815260a086015260c08501839052835180820185528381528083018490528085019390935260e090940191909152835160029081559084015160035590830151600490815591830151909161068391600591611247565b50608082015160078201906106989082611d22565b5060a082015180516106b491600884019160209091019061130f565b5060c082015160098201906106c99082611d22565b5060e0820151600a8201906106de9082611d22565b50610100820151600b8201906106f49082611d22565b50610120820151600c82019061070a9082611d22565b50610140820151600d8201906107209082611d22565b50610160820151600e82015561018082015161074290600f8301906003611285565b505060408051602081019091525f8152601291506107609082611d22565b50601c80546001600160a01b0319169055565b6002805460035460045460098054939492939192916107919061195f565b80601f01602080910402602001604051908101604052809291908181526020018280546107bd9061195f565b80156108085780601f106107df57610100808354040283529160200191610808565b820191905f5260205f20905b8154815290600101906020018083116107eb57829003601f168201915b50505050509080600901805461081d9061195f565b80601f01602080910402602001604051908101604052809291908181526020018280546108499061195f565b80156108945780601f1061086b57610100808354040283529160200191610894565b820191905f5260205f20905b81548152906001019060200180831161087757829003601f168201915b50505050509080600a0180546108a99061195f565b80601f01602080910402602001604051908101604052809291908181526020018280546108d59061195f565b80156109205780601f106108f757610100808354040283529160200191610920565b820191905f5260205f20905b81548152906001019060200180831161090357829003601f168201915b50505050509080600b0180546109359061195f565b80601f01602080910402602001604051908101604052809291908181526020018280546109619061195f565b80156109ac5780601f10610983576101008083540402835291602001916109ac565b820191905f5260205f20905b81548152906001019060200180831161098f57829003601f168201915b50505050509080600c0180546109c19061195f565b80601f01602080910402602001604051908101604052809291908181526020018280546109ed9061195f565b8015610a385780601f10610a0f57610100808354040283529160200191610a38565b820191905f5260205f20905b815481529060010190602001808311610a1b57829003601f168201915b50505050509080600d018054610a4d9061195f565b80601f0160208091040260200160405190810160405280929190818152602001828054610a799061195f565b8015610ac45780601f10610a9b57610100808354040283529160200191610ac4565b820191905f5260205f20905b815481529060010190602001808311610aa757829003601f168201915b50505050509080600e015490508a565b610add816110b0565b50565b610b0460405180606001604052806060815260200160608152602001606081525090565b6001600160a01b0382165f90815260208052604090819020815160608101909252805482908290610b349061195f565b80601f0160208091040260200160405190810160405280929190818152602001828054610b609061195f565b8015610bab5780601f10610b8257610100808354040283529160200191610bab565b820191905f5260205f20905b815481529060010190602001808311610b8e57829003601f168201915b50505050508152602001600182018054610bc49061195f565b80601f0160208091040260200160405190810160405280929190818152602001828054610bf09061195f565b8015610c3b5780601f10610c1257610100808354040283529160200191610c3b565b820191905f5260205f20905b815481529060010190602001808311610c1e57829003601f168201915b50505050508152602001600282018054610c549061195f565b80601f0160208091040260200160405190810160405280929190818152602001828054610c809061195f565b8015610ccb5780601f10610ca257610100808354040283529160200191610ccb565b820191905f5260205f20905b815481529060010190602001808311610cae57829003601f168201915b5050505050815250509050919050565b6020831015610cfd5760405163a512e2ff60e01b815260040160405180910390fd5b6040811015610d1f5760405163a512e2ff60e01b815260040160405180910390fd5b83355f610d2f6020828587611ddc565b610d3891611e03565b90505f610d49604060208688611ddc565b610d5291611e03565b90505f610d628560408189611ddc565b8080601f0160208091040260200160405190810160405280939291908181526020018383808284375f920182905250601b54949550939250610da2915050565b90505f60025f60081b5f54888d8d6020908092610dc193929190611ddc565b604051602001610dd696959493929190611e20565b60405160208183030381529060405290507f00000000000000000000000000000000000000000000000000000000000000006001600160a01b031663f7e83aee82848b8b604051602001610e2c93929190611e5b565b6040516020818303038152906040526040518363ffffffff1660e01b8152600401610e58929190611e74565b5f604051808303815f87803b158015610e6f575f5ffd5b505af1158015610e81573d5f5f3e3d5ffd5b5050505050505050505050505050565b6001805460ff191681179055815160029081556020830151600355604083015160049081556060840151849291610eca91600591611247565b5060808201516007820190610edf9082611d22565b5060a08201518051610efb91600884019160209091019061130f565b5060c08201516009820190610f109082611d22565b5060e0820151600a820190610f259082611d22565b50610100820151600b820190610f3b9082611d22565b50610120820151600c820190610f519082611d22565b50610140820151600d820190610f679082611d22565b50610160820151600e820155610180820151610f8990600f8301906003611285565b5060129150610f9a90508282611d22565b506020820151601c80546001600160a01b0319166001600160a01b0390921691909117905560a082015180515f90610fd457610fd4611e98565b6020026020010151601d9081610fea9190611d22565b508160a0015160018151811061100257611002611e98565b6020026020010151601e90816110189190611d22565b50610100820151601f9061102c9082611d22565b506110356110df565b7f18e38a10bbd0a26df39436e195efcfc93384c8fb9204ea36ccb5651945bc211a601d601e601f60405161106b93929190611f2b565b60405180910390a17f4d69fc00874a9f9f03a2bf733b9bddf88ea7b7cc852031f3491fcefe2eabe23b82826040516110a4929190612003565b60405180910390a15050565b5f81815560405182917f379705e49518633184cc7e64f6a0c9361e35f275be47634afb6c2c603e5311e591a250565b60405162544f4d60e81b602082015260230160405160208183030381529060405280519060200120601d6040516020016111199190612144565b604051602081830303815290604052805190602001201461115957601d604051632601899b60e11b815260040161115091906121b5565b60405180910390fd5b60405167105310949150d21560c21b602082015260280160405160208183030381529060405280519060200120601e6040516020016111989190612144565b60405160208183030381529060405280519060200120146111cf57601e60405163db8d73fb60e01b815260040161115091906121e1565b60405167030312d30312d30360c41b602082015260280160405160208183030381529060405280519060200120601f60405160200161120e9190612144565b604051602081830303815290604052805190602001201461124557601f6040516311a86f5760e11b81526004016111509190612212565b565b8260048101928215611275579160200282015b8281111561127557825182559160200191906001019061125a565b5061128192915061135f565b5090565b600183019183908215611275579160200282015f5b838211156112d657835183826101000a81548160ff02191690831515021790555092602001926001016020815f0104928301926001030261129a565b80156113025782816101000a81549060ff02191690556001016020815f010492830192600103026112d6565b505061128192915061135f565b828054828255905f5260205f20908101928215611353579160200282015b8281111561135357825182906113439082611d22565b509160200191906001019061132d565b50611281929150611373565b5b80821115611281575f8155600101611360565b80821115611281575f611386828261138f565b50600101611373565b50805461139b9061195f565b5f825580601f106113aa575050565b601f0160209004905f5260205f2090810190610add919061135f565b634e487b7160e01b5f52604160045260245ffd5b60405160a081016001600160401b03811182821017156113fc576113fc6113c6565b60405290565b6040516101a081016001600160401b03811182821017156113fc576113fc6113c6565b604051601f8201601f191681016001600160401b038111828210171561144d5761144d6113c6565b604052919050565b8015158114610add575f5ffd5b5f82601f830112611471575f5ffd5b61147b6060611425565b80606084018581111561148c575f5ffd5b845b818110156114af5780356114a181611455565b84526020938401930161148e565b509095945050505050565b5f6101408284031280156114cc575f5ffd5b506114d56113da565b82356114e081611455565b81526020838101359082015260408301356114fa81611455565b6040820152607f8301841361150d575f5ffd5b6115176080611425565b8060e0850186811115611528575f5ffd5b606086015b8181101561154557803584526020938401930161152d565b508160608501526115568782611462565b6080850152509195945050505050565b5f6001600160401b0382111561157e5761157e6113c6565b50601f01601f191660200190565b5f82601f83011261159b575f5ffd5b81356115ae6115a982611566565b611425565b8181528460208386010111156115c2575f5ffd5b816020850160208301375f918101602001919091529392505050565b5f5f604083850312156115ef575f5ffd5b82356001600160401b03811115611604575f5ffd5b6116108582860161158c565b92505060208301356001600160401b0381111561162b575f5ffd5b6116378582860161158c565b9150509250929050565b5f81518084528060208401602086015e5f602082860101526020601f19601f83011685010191505092915050565b602081525f6116816020830184611641565b9392505050565b8a815289602082015288604082015261014060608201525f6116ae61014083018a611641565b82810360808401526116c0818a611641565b905082810360a08401526116d48189611641565b905082810360c08401526116e88188611641565b905082810360e08401526116fc8187611641565b90508281036101008401526117118186611641565b915050826101208301529b9a5050505050505050505050565b5f5f5f6060848603121561173c575f5ffd5b833592506020840135915060408401356001600160401b0381111561175f575f5ffd5b61176b8682870161158c565b9150509250925092565b5f60208284031215611785575f5ffd5b5035919050565b5f6020828403121561179c575f5ffd5b81356001600160a01b0381168114611681575f5ffd5b602081525f8251606060208401526117cd6080840182611641565b90506020840151601f198483030160408501526117ea8282611641565b9150506040840151601f198483030160608501526118088282611641565b95945050505050565b5f5f83601f840112611821575f5ffd5b5081356001600160401b03811115611837575f5ffd5b60208301915083602082850101111561184e575f5ffd5b9250929050565b5f5f5f5f60408587031215611868575f5ffd5b84356001600160401b0381111561187d575f5ffd5b61188987828801611811565b90955093505060208501356001600160401b038111156118a7575f5ffd5b6118b387828801611811565b95989497509550505050565b815460ff908116151582526001830154602083015260028301541615156040820152610140810160608201600384015f5b600481101561190f5781548352602090920191600191820191016118f0565b505050600783015460ff808216151560e0850152600882901c8116151561010085015260109190911c1615156101208301525b92915050565b5f60208284031215611958575f5ffd5b5051919050565b600181811c9082168061197357607f821691505b60208210810361199157634e487b7160e01b5f52602260045260245ffd5b50919050565b5f82601f8301126119a6575f5ffd5b6119b06080611425565b8060808401858111156119c1575f5ffd5b845b818110156114af5780518452602093840193016119c3565b5f82601f8301126119ea575f5ffd5b81516119f86115a982611566565b818152846020838601011115611a0c575f5ffd5b8160208501602083015e5f918101602001919091529392505050565b5f82601f830112611a37575f5ffd5b81516001600160401b03811115611a5057611a506113c6565b8060051b611a6060208201611425565b91825260208185018101929081019086841115611a7b575f5ffd5b6020860192505b83831015611ac05782516001600160401b03811115611a9f575f5ffd5b611aae886020838a01016119db565b83525060209283019290910190611a82565b9695505050505050565b5f82601f830112611ad9575f5ffd5b611ae36060611425565b806060840185811115611af4575f5ffd5b845b818110156114af578051611b0981611455565b845260209384019301611af6565b5f60208284031215611b27575f5ffd5b81516001600160401b03811115611b3c575f5ffd5b82016102408185031215611b4e575f5ffd5b611b56611402565b815181526020808301519082015260408083015190820152611b7b8560608401611997565b606082015260e08201516001600160401b03811115611b98575f5ffd5b611ba4868285016119db565b6080830152506101008201516001600160401b03811115611bc3575f5ffd5b611bcf86828501611a28565b60a0830152506101208201516001600160401b03811115611bee575f5ffd5b611bfa868285016119db565b60c0830152506101408201516001600160401b03811115611c19575f5ffd5b611c25868285016119db565b60e0830152506101608201516001600160401b03811115611c44575f5ffd5b611c50868285016119db565b610100830152506101808201516001600160401b03811115611c70575f5ffd5b611c7c868285016119db565b610120830152506101a08201516001600160401b03811115611c9c575f5ffd5b611ca8868285016119db565b610140830152506101c0820151610160820152611cc9856101e08401611aca565b610180820152949350505050565b601f82111561054257805f5260205f20601f840160051c81016020851015611cfc5750805b601f840160051c820191505b81811015611d1b575f8155600101611d08565b5050505050565b81516001600160401b03811115611d3b57611d3b6113c6565b611d4f81611d49845461195f565b84611cd7565b6020601f821160018114611d81575f8315611d6a5750848201515b5f19600385901b1c1916600184901b178455611d1b565b5f84815260208120601f198516915b82811015611db05787850151825560209485019460019092019101611d90565b5084821015611dcd57868401515f19600387901b60f8161c191681555b50505050600190811b01905550565b5f5f85851115611dea575f5ffd5b83861115611df6575f5ffd5b5050820193919092039150565b80356020831015611942575f19602084900360031b1b1692915050565b60ff60f81b8760f81b16815260ff1986166001820152846020820152836040820152818360608301375f910160600190815295945050505050565b838152818360208301375f910160200190815292915050565b604081525f611e866040830185611641565b82810360208401526118088185611641565b634e487b7160e01b5f52603260045260245ffd5b5f8154611eb88161195f565b808552600182168015611ed25760018114611eee57611f22565b60ff1983166020870152602082151560051b8701019350611f22565b845f5260205f205f5b83811015611f195781546020828a010152600182019150602081019050611ef7565b87016020019450505b50505092915050565b606081525f611f3d6060830186611eac565b8281036020840152611f4f8186611eac565b90508281036040840152611ac08185611eac565b805f5b60048110156104d2578151845260209384019390910190600101611f66565b5f82825180855260208501945060208160051b830101602085015f5b83811015611fd357601f19858403018852611fbd838351611641565b6020988901989093509190910190600101611fa1565b50909695505050505050565b805f5b60038110156104d25781511515845260209384019390910190600101611fe2565b604081528251604082015260208301516060820152604083015160808201525f606084015161203560a0840182611f63565b506080840151610240610120840152612052610280840182611641565b905060a0850151603f19848303016101408501526120708282611f85565b91505060c0850151603f198483030161016085015261208f8282611641565b91505060e0850151603f19848303016101808501526120ae8282611641565b915050610100850151603f19848303016101a08501526120ce8282611641565b915050610120850151603f19848303016101c08501526120ee8282611641565b915050610140850151603f19848303016101e085015261210e8282611641565b915050610160850151610200840152610180850151612131610220850182611fdf565b5082810360208401526118088185611641565b5f5f83546121518161195f565b600182168015612168576001811461217d576121aa565b60ff19831686528115158202860193506121aa565b865f5260205f205f5b838110156121a257815488820152600190910190602001612186565b505081860193505b509195945050505050565b604081526003604082015262544f4d60e81b6060820152608060208201525f6116816080830184611eac565b604081526008604082015267105310949150d21560c21b6060820152608060208201525f6116816080830184611eac565b604081526008604082015267030312d30312d30360c41b6060820152608060208201525f6116816080830184611eac56fea2646970667358221220d9192e1eb6f4a884b050b08ed52249ce292cd1a6ca0fa58dd8688ee18b14f44a64736f6c634300081c0033",
  "linkReferences": {},
  "deployedLinkReferences": {},
  "immutableReferences": {
    "23": [
      {
        "length": 32,
        "start": 845
      },
      {
        "length": 32,
        "start": 1251
      },
      {
        "length": 32,
        "start": 3561
      }
    ]
  },
  "inputSourceName": "project/contracts/UserVerification.sol",
  "buildInfoId": "7e4d9a73be7fd333207729e836943912da2751e0"
}