{
  "_format": "hh3-artifact-1",
  "contractName": "Ascent",
  "sourceName": "contracts/Ascent.sol",
  "abi": [
    {
      "inputs": [],
      "stateMutability": "nonpayable",
      "type": "constructor"
    },
    {
      "inputs": [],
      "name": "AssetsAlreadyDistributed",
      "type": "error"
    },
    {
      "inputs": [],
      "name": "BeneficiaryAlreadyExists",
      "type": "error"
    },
    {
      "inputs": [],
      "name": "BeneficiaryNotFound",
      "type": "error"
    },
    {
      "inputs": [],
      "name": "HeartbeatExpiredCannotCheckIn",
      "type": "error"
    },
    {
      "inputs": [],
      "name": "HeartbeatNotExpired",
      "type": "error"
    },
    {
      "inputs": [],
      "name": "InvalidBeneficiaryAddress",
      "type": "error"
    },
    {
      "inputs": [],
      "name": "InvalidCheckInInterval",
      "type": "error"
    },
    {
      "inputs": [],
      "name": "InvalidInitialization",
      "type": "error"
    },
    {
      "inputs": [],
      "name": "NoAssetsToDistribute",
      "type": "error"
    },
    {
      "inputs": [],
      "name": "NotInitializing",
      "type": "error"
    },
    {
      "inputs": [
        {
          "internalType": "address",
          "name": "owner",
          "type": "address"
        }
      ],
      "name": "OwnableInvalidOwner",
      "type": "error"
    },
    {
      "inputs": [
        {
          "internalType": "address",
          "name": "account",
          "type": "address"
        }
      ],
      "name": "OwnableUnauthorizedAccount",
      "type": "error"
    },
    {
      "inputs": [
        {
          "internalType": "address",
          "name": "token",
          "type": "address"
        }
      ],
      "name": "SafeERC20FailedOperation",
      "type": "error"
    },
    {
      "anonymous": false,
      "inputs": [
        {
          "indexed": false,
          "internalType": "address[]",
          "name": "beneficiaries",
          "type": "address[]"
        },
        {
          "indexed": false,
          "internalType": "uint256",
          "name": "tokenCount",
          "type": "uint256"
        }
      ],
      "name": "AssetsDistributed",
      "type": "event"
    },
    {
      "anonymous": false,
      "inputs": [
        {
          "indexed": true,
          "internalType": "address",
          "name": "grantor",
          "type": "address"
        },
        {
          "indexed": false,
          "internalType": "uint256",
          "name": "timestamp",
          "type": "uint256"
        }
      ],
      "name": "CheckIn",
      "type": "event"
    },
    {
      "anonymous": false,
      "inputs": [
        {
          "indexed": false,
          "internalType": "uint256",
          "name": "timestamp",
          "type": "uint256"
        }
      ],
      "name": "DeadMansSwitchTriggered",
      "type": "event"
    },
    {
      "anonymous": false,
      "inputs": [
        {
          "indexed": false,
          "internalType": "uint64",
          "name": "version",
          "type": "uint64"
        }
      ],
      "name": "Initialized",
      "type": "event"
    },
    {
      "anonymous": false,
      "inputs": [
        {
          "indexed": true,
          "internalType": "address",
          "name": "previousOwner",
          "type": "address"
        },
        {
          "indexed": true,
          "internalType": "address",
          "name": "newOwner",
          "type": "address"
        }
      ],
      "name": "OwnershipTransferred",
      "type": "event"
    },
    {
      "inputs": [
        {
          "internalType": "address",
          "name": "_beneficiary",
          "type": "address"
        }
      ],
      "name": "addBeneficiary",
      "outputs": [],
      "stateMutability": "nonpayable",
      "type": "function"
    },
    {
      "inputs": [],
      "name": "assetsDistributed",
      "outputs": [
        {
          "internalType": "bool",
          "name": "",
          "type": "bool"
        }
      ],
      "stateMutability": "view",
      "type": "function"
    },
    {
      "inputs": [
        {
          "internalType": "uint256",
          "name": "",
          "type": "uint256"
        }
      ],
      "name": "beneficiaries",
      "outputs": [
        {
          "internalType": "address",
          "name": "",
          "type": "address"
        }
      ],
      "stateMutability": "view",
      "type": "function"
    },
    {
      "inputs": [],
      "name": "checkIn",
      "outputs": [],
      "stateMutability": "nonpayable",
      "type": "function"
    },
    {
      "inputs": [],
      "name": "checkInInterval",
      "outputs": [
        {
          "internalType": "enum IAscent.CheckInInterval",
          "name": "",
          "type": "uint8"
        }
      ],
      "stateMutability": "view",
      "type": "function"
    },
    {
      "inputs": [],
      "name": "distributeAssets",
      "outputs": [],
      "stateMutability": "nonpayable",
      "type": "function"
    },
    {
      "inputs": [],
      "name": "getBeneficiaries",
      "outputs": [
        {
          "internalType": "address[]",
          "name": "",
          "type": "address[]"
        }
      ],
      "stateMutability": "view",
      "type": "function"
    },
    {
      "inputs": [],
      "name": "getBeneficiaryCount",
      "outputs": [
        {
          "internalType": "uint256",
          "name": "",
          "type": "uint256"
        }
      ],
      "stateMutability": "view",
      "type": "function"
    },
    {
      "inputs": [],
      "name": "getNextCheckInDeadline",
      "outputs": [
        {
          "internalType": "uint256",
          "name": "",
          "type": "uint256"
        }
      ],
      "stateMutability": "view",
      "type": "function"
    },
    {
      "inputs": [],
      "name": "getRegisteredTokens",
      "outputs": [
        {
          "internalType": "address[]",
          "name": "",
          "type": "address[]"
        }
      ],
      "stateMutability": "view",
      "type": "function"
    },
    {
      "inputs": [],
      "name": "getTimeRemaining",
      "outputs": [
        {
          "internalType": "uint256",
          "name": "",
          "type": "uint256"
        }
      ],
      "stateMutability": "view",
      "type": "function"
    },
    {
      "inputs": [],
      "name": "hasHeartbeatExpired",
      "outputs": [
        {
          "internalType": "bool",
          "name": "",
          "type": "bool"
        }
      ],
      "stateMutability": "view",
      "type": "function"
    },
    {
      "inputs": [
        {
          "internalType": "address",
          "name": "_grantor",
          "type": "address"
        },
        {
          "internalType": "address[]",
          "name": "_beneficiaries",
          "type": "address[]"
        },
        {
          "internalType": "enum IAscent.CheckInInterval",
          "name": "_checkInInterval",
          "type": "uint8"
        }
      ],
      "name": "initialize",
      "outputs": [],
      "stateMutability": "nonpayable",
      "type": "function"
    },
    {
      "inputs": [],
      "name": "lastCheckIn",
      "outputs": [
        {
          "internalType": "uint256",
          "name": "",
          "type": "uint256"
        }
      ],
      "stateMutability": "view",
      "type": "function"
    },
    {
      "inputs": [],
      "name": "owner",
      "outputs": [
        {
          "internalType": "address",
          "name": "",
          "type": "address"
        }
      ],
      "stateMutability": "view",
      "type": "function"
    },
    {
      "inputs": [
        {
          "internalType": "address",
          "name": "tokenAddress",
          "type": "address"
        }
      ],
      "name": "registerToken",
      "outputs": [],
      "stateMutability": "nonpayable",
      "type": "function"
    },
    {
      "inputs": [
        {
          "internalType": "uint256",
          "name": "",
          "type": "uint256"
        }
      ],
      "name": "registeredTokens",
      "outputs": [
        {
          "internalType": "address",
          "name": "",
          "type": "address"
        }
      ],
      "stateMutability": "view",
      "type": "function"
    },
    {
      "inputs": [],
      "name": "registry",
      "outputs": [
        {
          "internalType": "address",
          "name": "",
          "type": "address"
        }
      ],
      "stateMutability": "view",
      "type": "function"
    },
    {
      "inputs": [
        {
          "internalType": "address",
          "name": "_beneficiary",
          "type": "address"
        }
      ],
      "name": "removeBeneficiary",
      "outputs": [],
      "stateMutability": "nonpayable",
      "type": "function"
    },
    {
      "inputs": [],
      "name": "renounceOwnership",
      "outputs": [],
      "stateMutability": "nonpayable",
      "type": "function"
    },
    {
      "inputs": [
        {
          "internalType": "address",
          "name": "newOwner",
          "type": "address"
        }
      ],
      "name": "transferOwnership",
      "outputs": [],
      "stateMutability": "nonpayable",
      "type": "function"
    }
  ],
  "bytecode": "0x6080604052348015600e575f5ffd5b5060156019565b60c9565b7ff0c57e16840df040f15088dc2f81fe391c3923bec73e23a9662efc9c229c6a00805468010000000000000000900460ff161560685760405163f92ee8a960e01b815260040160405180910390fd5b80546001600160401b039081161460c65780546001600160401b0319166001600160401b0390811782556040519081527fc7f505b2f371ae2175ee4913f4499e1f2633a7b5936321eed1cdaeb6115181d29060200160405180910390a15b50565b6112eb806100d65f395ff3fe608060405234801561000f575f5ffd5b5060043610610132575f3560e01c80637720b4bb116100b45780639a6e7fd1116100795780639a6e7fd11461024a578063bfd25fa514610251578063dac6270d1461026b578063db78dabd14610273578063efeb5e581461027c578063f2fde38b1461028f575f5ffd5b80637720b4bb146101e65780637b103999146101fc5780638da5cb5b14610227578063913b722c1461022f5780639a0ba2ea14610237575f5ffd5b80632dac3b21116100fa5780632dac3b211461019157806349cd6139146101a45780635926651d146101b857806359633a1c146101cb578063715018a6146101de575f5ffd5b806309824a801461013657806314cbd9931461014b578063183ff085146101695780631bfb23c314610171578063256fc59a14610189575b5f5ffd5b610149610144366004610fe0565b6102a2565b005b610153610386565b6040516101609190611000565b60405180910390f35b6101496103e6565b610179610464565b6040519015158152602001610160565b61014961048a565b61014961019f36600461106d565b610639565b60035461017990600160a01b900460ff1681565b6101496101c6366004610fe0565b610787565b6101496101d9366004610fe0565b6108d4565b610149610a91565b6101ee610aa4565b604051908152602001610160565b60035461020f906001600160a01b031681565b6040516001600160a01b039091168152602001610160565b61020f610ac7565b610153610af5565b61020f610245366004611159565b610b52565b5f546101ee565b60015461025e9060ff1681565b6040516101609190611184565b6101ee610b7a565b6101ee60025481565b61020f61028a366004611159565b610bba565b61014961029d366004610fe0565b610bc8565b6102aa610c0a565b6001600160a01b0381166102d1576040516334d0f66160e21b815260040160405180910390fd5b5f5b60045481101561033457816001600160a01b0316600482815481106102fa576102fa6111aa565b5f918252602090912001546001600160a01b03160361032c57604051635e6379d760e01b815260040160405180910390fd5b6001016102d3565b50600480546001810182555f919091527f8a35acfbc15ff81a39ae7d344fd709f28e8600b4aa8c65c6b64bfe7fe36bd19b0180546001600160a01b0319166001600160a01b0392909216919091179055565b606060048054806020026020016040519081016040528092919081815260200182805480156103dc57602002820191905f5260205f20905b81546001600160a01b031681526001909101906020018083116103be575b5050505050905090565b6103ee610c0a565b6103f6610464565b15610414576040516393b4c60d60e01b815260040160405180910390fd5b42600255610420610ac7565b6001600160a01b03167fa864a8b988e604bb05d6ce75d53efabb5620c45b15380b7bd0c51dcfa71dda034260405161045a91815260200190565b60405180910390a2565b6001545f906104759060ff16610c3c565b60025461048291906111d2565b421015905090565b610492610464565b6104af57604051634f8592d360e11b815260040160405180910390fd5b600354600160a01b900460ff16156104da5760405163d4b4619960e01b815260040160405180910390fd5b5f546104f95760405163319f812560e21b815260040160405180910390fd5b6004546105195760405163319f812560e21b815260040160405180910390fd5b6003805460ff60a01b1916600160a01b1790555f5b6004548110156105fa575f6004828154811061054c5761054c6111aa565b5f9182526020822001546001600160a01b0316915081908163dd62ed3e610571610ac7565b6040516001600160e01b031960e084901b1681526001600160a01b039091166004820152306024820152604401602060405180830381865afa1580156105b9573d5f5f3e3d5ffd5b505050506040513d601f19601f820116820180604052508101906105dd91906111e5565b905080156105ef576105ef8282610d0a565b50505060010161052e565b506004546040517fb772d5dd8f8e18625bf9c8a76226e6b86e0680cb6b6a5359a3eb78051f8ff59e9161062f915f91906111fc565b60405180910390a1565b5f610642610d96565b805490915060ff600160401b820416159067ffffffffffffffff165f811580156106695750825b90505f8267ffffffffffffffff1660011480156106855750303b155b905081158015610693575080155b156106b15760405163f92ee8a960e01b815260040160405180910390fd5b845467ffffffffffffffff1916600117855583156106db57845460ff60401b1916600160401b1785555b6106e488610dc0565b86516106f6905f9060208a0190610f53565b506001805487919060ff19168183600481111561071557610715611170565b021790555042600255600380546001600160a81b0319163360ff60a01b1916179055831561077d57845460ff60401b19168555604051600181527fc7f505b2f371ae2175ee4913f4499e1f2633a7b5936321eed1cdaeb6115181d29060200160405180910390a15b5050505050505050565b61078f610c0a565b6001600160a01b0381166107b6576040516334d0f66160e21b815260040160405180910390fd5b5f5b5f5481101561081757816001600160a01b03165f82815481106107dd576107dd6111aa565b5f918252602090912001546001600160a01b03160361080f57604051635e6379d760e01b815260040160405180910390fd5b6001016107b8565b505f80546001810182559080527f290decd9548b62a8d60345a988386fc84ba6bc95484008f6362f93160ef3e5630180546001600160a01b0319166001600160a01b038381169190911790915560035416636d165281610875610ac7565b6040516001600160e01b031960e084901b1681526001600160a01b03918216600482015290841660248201526044015f604051808303815f87803b1580156108bb575f5ffd5b505af11580156108cd573d5f5f3e3d5ffd5b5050505050565b6108dc610c0a565b6001600160a01b038116610903576040516334d0f66160e21b815260040160405180910390fd5b5f80805b5f5481101561095957836001600160a01b03165f828154811061092c5761092c6111aa565b5f918252602090912001546001600160a01b0316036109515760019250809150610959565b600101610907565b50816109785760405163694f351f60e01b815260040160405180910390fd5b5f805461098790600190611254565b81548110610997576109976111aa565b5f91825260208220015481546001600160a01b039091169190839081106109c0576109c06111aa565b5f918252602082200180546001600160a01b0319166001600160a01b0393909316929092179091558054806109f7576109f7611267565b5f8281526020902081015f1990810180546001600160a01b03191690550190556003546001600160a01b0316636a8a03e5610a30610ac7565b6040516001600160e01b031960e084901b1681526001600160a01b03918216600482015290861660248201526044015f604051808303815f87803b158015610a76575f5ffd5b505af1158015610a88573d5f5f3e3d5ffd5b50505050505050565b610a99610c0a565b610aa25f610dd1565b565b6001545f90610ab59060ff16610c3c565b600254610ac291906111d2565b905090565b7f9016d09d72d40fdae2fd8ceac6b6234c7706214fd39c1cd1e609a0528c199300546001600160a01b031690565b60605f8054806020026020016040519081016040528092919081815260200182805480156103dc57602002820191905f5260205f209081546001600160a01b031681526001909101906020018083116103be575050505050905090565b60048181548110610b61575f80fd5b5f918252602090912001546001600160a01b0316905081565b6001545f908190610b8d9060ff16610c3c565b600254610b9a91906111d2565b9050804210610baa575f91505090565b610bb44282611254565b91505090565b5f8181548110610b61575f80fd5b610bd0610c0a565b6001600160a01b038116610bfe57604051631e4fbdf760e01b81525f60048201526024015b60405180910390fd5b610c0781610dd1565b50565b33610c13610ac7565b6001600160a01b031614610aa25760405163118cdaa760e01b8152336004820152602401610bf5565b5f80826004811115610c5057610c50611170565b03610c5f575062093a80919050565b6001826004811115610c7357610c73611170565b03610c82575062127500919050565b6002826004811115610c9657610c96611170565b03610ca5575062278d00919050565b6003826004811115610cb957610cb9611170565b03610cc8575062ed4e00919050565b6004826004811115610cdc57610cdc611170565b03610cec57506301e13380919050565b60405163ab257c7f60e01b815260040160405180910390fd5b919050565b5f8054610d17908361128f565b5f805491925090610d2890846112a2565b90505f5b5f548110156108cd57825f829003610d4b57610d4883826111d2565b90505b8015610d8d57610d8d610d5c610ac7565b5f8481548110610d6e57610d6e6111aa565b5f918252602090912001546001600160a01b0389811692911684610e41565b50600101610d2c565b5f807ff0c57e16840df040f15088dc2f81fe391c3923bec73e23a9662efc9c229c6a005b92915050565b610dc8610ea1565b610c0781610ec6565b7f9016d09d72d40fdae2fd8ceac6b6234c7706214fd39c1cd1e609a0528c19930080546001600160a01b031981166001600160a01b03848116918217845560405192169182907f8be0079c531659141344cd1fd0a4f28419497f9722a3daafe3b4186f6b6457e0905f90a3505050565b604080516001600160a01b0385811660248301528416604482015260648082018490528251808303909101815260849091019091526020810180516001600160e01b03166323b872dd60e01b179052610e9b908590610ece565b50505050565b610ea9610f3a565b610aa257604051631afcd79f60e31b815260040160405180910390fd5b610bd0610ea1565b5f5f60205f8451602086015f885af180610eed576040513d5f823e3d81fd5b50505f513d91508115610f04578060011415610f11565b6001600160a01b0384163b155b15610e9b57604051635274afe760e01b81526001600160a01b0385166004820152602401610bf5565b5f610f43610d96565b54600160401b900460ff16919050565b828054828255905f5260205f20908101928215610fa6579160200282015b82811115610fa657825182546001600160a01b0319166001600160a01b03909116178255602090920191600190910190610f71565b50610fb2929150610fb6565b5090565b5b80821115610fb2575f8155600101610fb7565b80356001600160a01b0381168114610d05575f5ffd5b5f60208284031215610ff0575f5ffd5b610ff982610fca565b9392505050565b602080825282518282018190525f918401906040840190835b818110156110405783516001600160a01b0316835260209384019390920191600101611019565b509095945050505050565b634e487b7160e01b5f52604160045260245ffd5b803560058110610d05575f5ffd5b5f5f5f6060848603121561107f575f5ffd5b61108884610fca565b9250602084013567ffffffffffffffff8111156110a3575f5ffd5b8401601f810186136110b3575f5ffd5b803567ffffffffffffffff8111156110cd576110cd61104b565b8060051b604051601f19603f830116810181811067ffffffffffffffff821117156110fa576110fa61104b565b604052918252602081840181019290810189841115611117575f5ffd5b6020850194505b8385101561113d5761112f85610fca565b81526020948501940161111e565b509450611150925050506040850161105f565b90509250925092565b5f60208284031215611169575f5ffd5b5035919050565b634e487b7160e01b5f52602160045260245ffd5b60208101600583106111a457634e487b7160e01b5f52602160045260245ffd5b91905290565b634e487b7160e01b5f52603260045260245ffd5b634e487b7160e01b5f52601160045260245ffd5b80820180821115610dba57610dba6111be565b5f602082840312156111f5575f5ffd5b5051919050565b604080825283549082018190525f8481526020812090916060840190835b818110156112415783546001600160a01b031683526001938401936020909301920161121a565b5050602093909301939093525092915050565b81810381811115610dba57610dba6111be565b634e487b7160e01b5f52603160045260245ffd5b634e487b7160e01b5f52601260045260245ffd5b5f8261129d5761129d61127b565b500490565b5f826112b0576112b061127b565b50069056fea264697066735822122058725771eae5ef5b52a4ec1886b201e14d8da9d6dde09e5fca7d3a019dd4015e64736f6c634300081c0033",
  "linkReferences": {},
  "deployedLinkReferences": {},
  "immutableReferences": {},
  "inputSourceName": "project/contracts/Ascent.sol",
  "buildInfoId": "5d4dbaacc40e05159a848c6bc95a911e8d5a236d"
}