{
  "_format": "hh3-artifact-1",
  "contractName": "UserVerification",
  "sourceName": "contracts/UserVerification.sol",
  "abi": [
    {
      "inputs": [
        {
          "internalType": "address",
          "name": "identityVerificationHubV2Address",
          "type": "address"
        },
        {
          "internalType": "uint256",
          "name": "scope",
          "type": "uint256"
        },
        {
          "internalType": "bytes32",
          "name": "_verificationConfigId",
          "type": "bytes32"
        }
      ],
      "stateMutability": "nonpayable",
      "type": "constructor"
    },
    {
      "inputs": [],
      "name": "InvalidDataFormat",
      "type": "error"
    },
    {
      "inputs": [
        {
          "internalType": "string[]",
          "name": "namesArray",
          "type": "string[]"
        }
      ],
      "name": "LogError",
      "type": "error"
    },
    {
      "inputs": [],
      "name": "UnauthorizedCaller",
      "type": "error"
    },
    {
      "inputs": [
        {
          "internalType": "uint256",
          "name": "expectedValue",
          "type": "uint256"
        },
        {
          "internalType": "uint256",
          "name": "actualValue",
          "type": "uint256"
        }
      ],
      "name": "UserIdentifierMismatch",
      "type": "error"
    },
    {
      "anonymous": false,
      "inputs": [
        {
          "indexed": false,
          "internalType": "address",
          "name": "ascendAddress",
          "type": "address"
        },
        {
          "indexed": false,
          "internalType": "uint256[]",
          "name": "beneficiaryUserIdentifiers",
          "type": "uint256[]"
        }
      ],
      "name": "AddedBeneficiary",
      "type": "event"
    },
    {
      "anonymous": false,
      "inputs": [
        {
          "indexed": false,
          "internalType": "address",
          "name": "parsedAddress",
          "type": "address"
        },
        {
          "indexed": false,
          "internalType": "bytes",
          "name": "originalUserData",
          "type": "bytes"
        }
      ],
      "name": "AddressParsingEvent",
      "type": "event"
    },
    {
      "anonymous": false,
      "inputs": [
        {
          "indexed": false,
          "internalType": "bytes",
          "name": "log",
          "type": "bytes"
        }
      ],
      "name": "ByteLogEvent",
      "type": "event"
    },
    {
      "anonymous": false,
      "inputs": [
        {
          "indexed": false,
          "internalType": "address",
          "name": "ascendAddress",
          "type": "address"
        },
        {
          "indexed": false,
          "internalType": "uint256",
          "name": "beneficiaryUserIdentifier",
          "type": "uint256"
        }
      ],
      "name": "RemovedBeneficiaryUserIdentifier",
      "type": "event"
    },
    {
      "anonymous": false,
      "inputs": [
        {
          "indexed": true,
          "internalType": "uint256",
          "name": "newScope",
          "type": "uint256"
        }
      ],
      "name": "ScopeUpdated",
      "type": "event"
    },
    {
      "anonymous": false,
      "inputs": [
        {
          "indexed": false,
          "internalType": "string",
          "name": "log",
          "type": "string"
        }
      ],
      "name": "StringLogEvent",
      "type": "event"
    },
    {
      "anonymous": false,
      "inputs": [
        {
          "indexed": false,
          "internalType": "uint256",
          "name": "log",
          "type": "uint256"
        }
      ],
      "name": "Uint256LogEvent",
      "type": "event"
    },
    {
      "inputs": [
        {
          "internalType": "address",
          "name": "_ascendAddress",
          "type": "address"
        },
        {
          "internalType": "uint256[]",
          "name": "_beneficiaryUserIdentifiers",
          "type": "uint256[]"
        }
      ],
      "name": "addBeneficiaryData",
      "outputs": [],
      "stateMutability": "nonpayable",
      "type": "function"
    },
    {
      "inputs": [
        {
          "internalType": "address[]",
          "name": "_ascendAddresses",
          "type": "address[]"
        },
        {
          "internalType": "uint256[][]",
          "name": "_beneficiaryUserIdentifiers",
          "type": "uint256[][]"
        }
      ],
      "name": "addBeneficiaryDataBatch",
      "outputs": [],
      "stateMutability": "nonpayable",
      "type": "function"
    },
    {
      "inputs": [
        {
          "internalType": "address",
          "name": "_address",
          "type": "address"
        }
      ],
      "name": "getBeneficiaryData",
      "outputs": [
        {
          "components": [
            {
              "internalType": "uint256[]",
              "name": "beneficiaryUserIdentifier",
              "type": "uint256[]"
            }
          ],
          "internalType": "struct UserVerification.BeneficiaryInfo",
          "name": "",
          "type": "tuple"
        }
      ],
      "stateMutability": "view",
      "type": "function"
    },
    {
      "inputs": [
        {
          "internalType": "bytes32",
          "name": "",
          "type": "bytes32"
        },
        {
          "internalType": "bytes32",
          "name": "",
          "type": "bytes32"
        },
        {
          "internalType": "bytes",
          "name": "",
          "type": "bytes"
        }
      ],
      "name": "getConfigId",
      "outputs": [
        {
          "internalType": "bytes32",
          "name": "",
          "type": "bytes32"
        }
      ],
      "stateMutability": "view",
      "type": "function"
    },
    {
      "inputs": [],
      "name": "lastOutput",
      "outputs": [
        {
          "internalType": "bytes32",
          "name": "attestationId",
          "type": "bytes32"
        },
        {
          "internalType": "uint256",
          "name": "userIdentifier",
          "type": "uint256"
        },
        {
          "internalType": "uint256",
          "name": "nullifier",
          "type": "uint256"
        },
        {
          "internalType": "string",
          "name": "issuingState",
          "type": "string"
        },
        {
          "internalType": "string",
          "name": "idNumber",
          "type": "string"
        },
        {
          "internalType": "string",
          "name": "nationality",
          "type": "string"
        },
        {
          "internalType": "string",
          "name": "dateOfBirth",
          "type": "string"
        },
        {
          "internalType": "string",
          "name": "gender",
          "type": "string"
        },
        {
          "internalType": "string",
          "name": "expiryDate",
          "type": "string"
        },
        {
          "internalType": "uint256",
          "name": "olderThan",
          "type": "uint256"
        }
      ],
      "stateMutability": "view",
      "type": "function"
    },
    {
      "inputs": [],
      "name": "lastUserAddress",
      "outputs": [
        {
          "internalType": "address",
          "name": "",
          "type": "address"
        }
      ],
      "stateMutability": "view",
      "type": "function"
    },
    {
      "inputs": [],
      "name": "lastUserData",
      "outputs": [
        {
          "internalType": "bytes",
          "name": "",
          "type": "bytes"
        }
      ],
      "stateMutability": "view",
      "type": "function"
    },
    {
      "inputs": [],
      "name": "lastUserIdentifier",
      "outputs": [
        {
          "internalType": "uint256",
          "name": "",
          "type": "uint256"
        }
      ],
      "stateMutability": "view",
      "type": "function"
    },
    {
      "inputs": [
        {
          "internalType": "bytes",
          "name": "output",
          "type": "bytes"
        },
        {
          "internalType": "bytes",
          "name": "userData",
          "type": "bytes"
        }
      ],
      "name": "onVerificationSuccess",
      "outputs": [],
      "stateMutability": "nonpayable",
      "type": "function"
    },
    {
      "inputs": [
        {
          "internalType": "address",
          "name": "_ascendAddress",
          "type": "address"
        },
        {
          "internalType": "uint256",
          "name": "_beneficiaryUserIdentifier",
          "type": "uint256"
        }
      ],
      "name": "removeBeneficiaryUserIdentifier",
      "outputs": [],
      "stateMutability": "nonpayable",
      "type": "function"
    },
    {
      "inputs": [],
      "name": "resetTestState",
      "outputs": [],
      "stateMutability": "nonpayable",
      "type": "function"
    },
    {
      "inputs": [],
      "name": "scope",
      "outputs": [
        {
          "internalType": "uint256",
          "name": "",
          "type": "uint256"
        }
      ],
      "stateMutability": "view",
      "type": "function"
    },
    {
      "inputs": [
        {
          "internalType": "bytes32",
          "name": "configId",
          "type": "bytes32"
        }
      ],
      "name": "setConfigId",
      "outputs": [],
      "stateMutability": "nonpayable",
      "type": "function"
    },
    {
      "inputs": [
        {
          "internalType": "uint256",
          "name": "newScope",
          "type": "uint256"
        }
      ],
      "name": "setScope",
      "outputs": [],
      "stateMutability": "nonpayable",
      "type": "function"
    },
    {
      "inputs": [
        {
          "components": [
            {
              "internalType": "bool",
              "name": "olderThanEnabled",
              "type": "bool"
            },
            {
              "internalType": "uint256",
              "name": "olderThan",
              "type": "uint256"
            },
            {
              "internalType": "bool",
              "name": "forbiddenCountriesEnabled",
              "type": "bool"
            },
            {
              "internalType": "uint256[4]",
              "name": "forbiddenCountriesListPacked",
              "type": "uint256[4]"
            },
            {
              "internalType": "bool[3]",
              "name": "ofacEnabled",
              "type": "bool[3]"
            }
          ],
          "internalType": "struct SelfStructs.VerificationConfigV2",
          "name": "config",
          "type": "tuple"
        }
      ],
      "name": "setVerificationConfig",
      "outputs": [],
      "stateMutability": "nonpayable",
      "type": "function"
    },
    {
      "inputs": [
        {
          "components": [
            {
              "internalType": "bool",
              "name": "olderThanEnabled",
              "type": "bool"
            },
            {
              "internalType": "uint256",
              "name": "olderThan",
              "type": "uint256"
            },
            {
              "internalType": "bool",
              "name": "forbiddenCountriesEnabled",
              "type": "bool"
            },
            {
              "internalType": "uint256[4]",
              "name": "forbiddenCountriesListPacked",
              "type": "uint256[4]"
            },
            {
              "internalType": "bool[3]",
              "name": "ofacEnabled",
              "type": "bool[3]"
            }
          ],
          "internalType": "struct SelfStructs.VerificationConfigV2",
          "name": "config",
          "type": "tuple"
        }
      ],
      "name": "setVerificationConfigNoHub",
      "outputs": [],
      "stateMutability": "nonpayable",
      "type": "function"
    },
    {
      "inputs": [
        {
          "components": [
            {
              "internalType": "bytes32",
              "name": "attestationId",
              "type": "bytes32"
            },
            {
              "internalType": "uint256",
              "name": "userIdentifier",
              "type": "uint256"
            },
            {
              "internalType": "uint256",
              "name": "nullifier",
              "type": "uint256"
            },
            {
              "internalType": "uint256[4]",
              "name": "forbiddenCountriesListPacked",
              "type": "uint256[4]"
            },
            {
              "internalType": "string",
              "name": "issuingState",
              "type": "string"
            },
            {
              "internalType": "string[]",
              "name": "name",
              "type": "string[]"
            },
            {
              "internalType": "string",
              "name": "idNumber",
              "type": "string"
            },
            {
              "internalType": "string",
              "name": "nationality",
              "type": "string"
            },
            {
              "internalType": "string",
              "name": "dateOfBirth",
              "type": "string"
            },
            {
              "internalType": "string",
              "name": "gender",
              "type": "string"
            },
            {
              "internalType": "string",
              "name": "expiryDate",
              "type": "string"
            },
            {
              "internalType": "uint256",
              "name": "olderThan",
              "type": "uint256"
            },
            {
              "internalType": "bool[3]",
              "name": "ofac",
              "type": "bool[3]"
            }
          ],
          "internalType": "struct ISelfVerificationRoot.GenericDiscloseOutputV2",
          "name": "output",
          "type": "tuple"
        },
        {
          "internalType": "bytes",
          "name": "userData",
          "type": "bytes"
        }
      ],
      "name": "testCustomVerification",
      "outputs": [],
      "stateMutability": "nonpayable",
      "type": "function"
    },
    {
      "inputs": [],
      "name": "verificationConfig",
      "outputs": [
        {
          "internalType": "bool",
          "name": "olderThanEnabled",
          "type": "bool"
        },
        {
          "internalType": "uint256",
          "name": "olderThan",
          "type": "uint256"
        },
        {
          "internalType": "bool",
          "name": "forbiddenCountriesEnabled",
          "type": "bool"
        }
      ],
      "stateMutability": "view",
      "type": "function"
    },
    {
      "inputs": [],
      "name": "verificationConfigId",
      "outputs": [
        {
          "internalType": "bytes32",
          "name": "",
          "type": "bytes32"
        }
      ],
      "stateMutability": "view",
      "type": "function"
    },
    {
      "inputs": [],
      "name": "verificationSuccessful",
      "outputs": [
        {
          "internalType": "bool",
          "name": "",
          "type": "bool"
        }
      ],
      "stateMutability": "view",
      "type": "function"
    },
    {
      "inputs": [
        {
          "internalType": "bytes",
          "name": "proofPayload",
          "type": "bytes"
        },
        {
          "internalType": "bytes",
          "name": "userContextData",
          "type": "bytes"
        }
      ],
      "name": "verifySelfProof",
      "outputs": [],
      "stateMutability": "nonpayable",
      "type": "function"
    }
  ],
  "bytecode": "0x60a060405234801561000f575f5ffd5b506040516128a73803806128a783398101604081905261002e91610046565b6001600160a01b039092166080525f55601b55610085565b5f5f5f60608486031215610058575f5ffd5b83516001600160a01b038116811461006e575f5ffd5b602085015160409095015190969495509392505050565b6080516127fc6100ab5f395f8181610382015281816104fe0152610d1a01526127fc5ff3fe608060405234801561000f575f5ffd5b5060043610610131575f3560e01c806397228a7e116100b4578063b8ed494411610079578063b8ed49441461029a578063bb443744146102ba578063c385abae146102c3578063d161802b146102d6578063f75c6e1c146102e9578063ff622653146102fc575f5ffd5b806397228a7e146102355780639d7e78d914610253578063ada1b3191461025c578063b4ba6ff914610274578063b8c57b1d14610287575f5ffd5b806368f747bf116100fa57806368f747bf146101d95780636e62d0a8146101ec5780637793a843146101fd5780638d2d8d6a1461021a57806394c189f71461022d575f5ffd5b80623bc35c14610135578063037b410e1461014a57806311e37ed0146101865780635417c7551461019b5780636476a0fa146101c6575b5f5ffd5b61014861014336600461180e565b61030f565b005b6013546014546015546101629260ff90811692911683565b60408051931515845260208401929092521515908201526060015b60405180910390f35b61018e6103fd565b60405161017d91906118c9565b601c546101ae906001600160a01b031681565b6040516001600160a01b03909116815260200161017d565b6101486101d436600461180e565b610489565b6101486101e73660046119ff565b6104e9565b5f545b60405190815260200161017d565b60015461020a9060ff1681565b604051901515815260200161017d565b610148610228366004611be9565b6104f3565b610148610562565b61023d610781565b60405161017d9a99989796959493929190611c36565b6101ef601d5481565b6101ef61026a366004611cd8565b601b549392505050565b610148610282366004611d23565b610ae2565b610148610295366004611d4e565b610aee565b6102ad6102a8366004611df3565b610b8c565b60405161017d9190611e0e565b6101ef601b5481565b6101486102d1366004611d23565b601b55565b6101486102e4366004611e9c565b610c0c565b6101486102f7366004611f46565b610dc2565b61014861030a366004611fa4565b610f18565b80516013805491151560ff19928316178155602083015160145560408301516015805491151591909316179091556060820151829190610353906016906004611579565b50608082015161036990600783019060036115b7565b50506040516309ddb09160e01b81526001600160a01b037f00000000000000000000000000000000000000000000000000000000000000001691506309ddb091906103b990601390600401611fce565b6020604051808303815f875af11580156103d5573d5f5f3e3d5ffd5b505050506040513d601f19601f820116820180604052508101906103f99190612055565b5050565b6012805461040a9061206c565b80601f01602080910402602001604051908101604052809291908181526020018280546104369061206c565b80156104815780601f1061045857610100808354040283529160200191610481565b820191905f5260205f20905b81548152906001019060200180831161046457829003601f168201915b505050505081565b80516013805491151560ff199283161781556020830151601455604083015160158054911515919093161790915560608201518291906104cd906016906004611579565b5060808201516104e390600783019060036115b7565b50505050565b6103f9828261101b565b336001600160a01b037f0000000000000000000000000000000000000000000000000000000000000000161461053c57604051635c427cd960e01b815260040160405180910390fd5b5f8280602001905181019061055191906121fa565b905061055d818361101b565b505050565b6001805460ff19169055604080516101a0810182525f80825260208083018290528284018290528351608080820186528382528183018490528186018490526060808301859052850191909152845191820185529181528183015282516003808252918101909352909160a0830191816020015b60608152602001906001900390816105d6575050815260408051602080820183525f808352818501929092528251808201845282815283850152825180820184528281526060808601919091528351808301855283815260808601528351808301855283815260a086015260c08501839052835180820185528381528083018490528085019390935260e090940191909152835160029081559084015160035590830151600490815591830151909161069191600591611579565b50608082015160078201906106a690826123fe565b5060a082015180516106c2916008840191602090910190611641565b5060c082015160098201906106d790826123fe565b5060e0820151600a8201906106ec90826123fe565b50610100820151600b82019061070290826123fe565b50610120820151600c82019061071890826123fe565b50610140820151600d82019061072e90826123fe565b50610160820151600e82015561018082015161075090600f83019060036115b7565b505060408051602081019091525f81526012915061076e90826123fe565b50601c80546001600160a01b0319169055565b60028054600354600454600980549394929391929161079f9061206c565b80601f01602080910402602001604051908101604052809291908181526020018280546107cb9061206c565b80156108165780601f106107ed57610100808354040283529160200191610816565b820191905f5260205f20905b8154815290600101906020018083116107f957829003601f168201915b50505050509080600901805461082b9061206c565b80601f01602080910402602001604051908101604052809291908181526020018280546108579061206c565b80156108a25780601f10610879576101008083540402835291602001916108a2565b820191905f5260205f20905b81548152906001019060200180831161088557829003601f168201915b50505050509080600a0180546108b79061206c565b80601f01602080910402602001604051908101604052809291908181526020018280546108e39061206c565b801561092e5780601f106109055761010080835404028352916020019161092e565b820191905f5260205f20905b81548152906001019060200180831161091157829003601f168201915b50505050509080600b0180546109439061206c565b80601f016020809104026020016040519081016040528092919081815260200182805461096f9061206c565b80156109ba5780601f10610991576101008083540402835291602001916109ba565b820191905f5260205f20905b81548152906001019060200180831161099d57829003601f168201915b50505050509080600c0180546109cf9061206c565b80601f01602080910402602001604051908101604052809291908181526020018280546109fb9061206c565b8015610a465780601f10610a1d57610100808354040283529160200191610a46565b820191905f5260205f20905b815481529060010190602001808311610a2957829003601f168201915b50505050509080600d018054610a5b9061206c565b80601f0160208091040260200160405190810160405280929190818152602001828054610a879061206c565b8015610ad25780601f10610aa957610100808354040283529160200191610ad2565b820191905f5260205f20905b815481529060010190602001808311610ab557829003601f168201915b50505050509080600e015490508a565b610aeb816110b2565b50565b5f5b8151811015610b4e576001600160a01b0383165f908152601e602052604090208251839083908110610b2457610b246124b8565b6020908102919091018101518254600181810185555f948552929093209092019190915501610af0565b507f9a27507bbc5cc9647d046af4b613e0e7b6a59ec97242eea75ee6c6d1c7aacf038282604051610b809291906124cc565b60405180910390a15050565b6040805160208082018352606082526001600160a01b0384165f908152601e825283902083518154808402820186018652928101838152939490939192849291849190840182828015610bfc57602002820191905f5260205f20905b815481526020019060010190808311610be8575b5050505050815250509050919050565b6020831015610c2e5760405163a512e2ff60e01b815260040160405180910390fd5b6040811015610c505760405163a512e2ff60e01b815260040160405180910390fd5b83355f610c606020828587612521565b610c6991612548565b90505f610c7a604060208688612521565b610c8391612548565b90505f610c938560408189612521565b8080601f0160208091040260200160405190810160405280939291908181526020018383808284375f920182905250601b54949550939250610cd3915050565b90505f60025f60081b5f54888d8d6020908092610cf293929190612521565b604051602001610d0796959493929190612565565b60405160208183030381529060405290507f00000000000000000000000000000000000000000000000000000000000000006001600160a01b031663f7e83aee82848b8b604051602001610d5d939291906125a0565b6040516020818303038152906040526040518363ffffffff1660e01b8152600401610d899291906125b9565b5f604051808303815f87803b158015610da0575f5ffd5b505af1158015610db2573d5f5f3e3d5ffd5b5050505050505050505050505050565b828114610e0f5760405162461bcd60e51b8152602060048201526016602482015275082e4e4c2f2e640d8cadccee8d040dad2e6dac2e8c6d60531b60448201526064015b60405180910390fd5b5f5b83811015610f11575f858583818110610e2c57610e2c6124b8565b9050602002016020810190610e419190611df3565b9050365f858585818110610e5757610e576124b8565b9050602002810190610e6991906125e6565b90925090505f5b81811015610eca576001600160a01b0384165f908152601e60205260409020838383818110610ea157610ea16124b8565b8354600180820186555f9586526020958690209290950293909301359201919091555001610e70565b507f9a27507bbc5cc9647d046af4b613e0e7b6a59ec97242eea75ee6c6d1c7aacf03838383604051610efe9392919061262b565b60405180910390a1505050600101610e11565b5050505050565b6001600160a01b0382165f908152601e60205260408120905b8154811015610fd25782828281548110610f4d57610f4d6124b8565b905f5260205f20015403610fca5781548290610f6b90600190612687565b81548110610f7b57610f7b6124b8565b905f5260205f200154828281548110610f9657610f966124b8565b905f5260205f20018190555081805480610fb257610fb261269a565b600190038181905f5260205f20015f90559055610fd2565b600101610f31565b50604080516001600160a01b0385168152602081018490527f1d89bc6a9a178e1fb963545bcc45bf5b691ddec92edd8288c2ead8134a88305691015b60405180910390a1505050565b6001805460ff191681179055604082810151601d81905590519081527f235b3837d42e0fc67869923a0d59cc6b4c33d2c9446a9c9b71450ab46ab95a9d9060200160405180910390a15f61106e826110e1565b90507f9bc2b0e88c7ac8efff506dd3c94742a4ebf9ab3af97453a829eb5fdb61b490ff81836040516110a19291906126ae565b60405180910390a161055d816111a0565b5f81815560405182917f379705e49518633184cc7e64f6a0c9361e35f275be47634afb6c2c603e5311e591a250565b5f815160200361110557818060200190518101906110ff91906126d9565b92915050565b815160140361112057611117826126f4565b60601c92915050565b8151602a03611132576110ff826112ed565b8151602803611144576110ff826112ed565b60405162461bcd60e51b815260206004820152602b60248201527f496e76616c696420757365724461746120666f726d617420666f72206164647260448201526a6573732070617273696e6760a81b6064820152608401610e06565b6001600160a01b0381165f908152601e60209081526040808320805482518185028101850190935280835291929091908301828280156111fd57602002820191905f5260205f20905b8154815260200190600101908083116111e9575b509394505f935083925050505b825181101561124657601d54838281518110611228576112286124b8565b60200260200101510361123e5760019150611246565b60010161120a565b508061129a577f5df11f703b372c6ff3506fee4b8b33ce9e9ff923fbee600b98f92bc8c51d508460405161100e906020808252600c908201526b10da1958dad7d1985a5b195960a21b604082015260600190565b7f5df11f703b372c6ff3506fee4b8b33ce9e9ff923fbee600b98f92bc8c51d508460405161100e9060208082526011908201527010da1958dad7d4dd58d8d95cdcd99d5b1b607a1b604082015260600190565b5f8151602814806112ff57508151602a145b61134b5760405162461bcd60e51b815260206004820152601960248201527f496e76616c69642068657820737472696e67206c656e677468000000000000006044820152606401610e06565b81515f90602a036113f457825f81518110611368576113686124b8565b6020910101516001600160f81b031916600360fc1b1480156113af575082600181518110611398576113986124b8565b6020910101516001600160f81b031916600f60fb1b145b6113f05760405162461bcd60e51b8152602060048201526012602482015271092dcecc2d8d2c840d0caf040e0e4caccd2f60731b6044820152606401610e06565b5060025b5f805b60148110156114a6575f61143e86611410846002612747565b61141a908761275e565b8151811061142a5761142a6124b8565b01602001516001600160f81b0319166114b1565b90505f61146587611450856002612747565b61145a908861275e565b61141a90600161275e565b9050611472836008612747565b8161147e846010612771565b6114889190612794565b60f81b6001600160f81b031916901c939093179250506001016113f7565b5060601c9392505050565b5f60f882901c603081108015906114cc575060398160ff1611155b156114e3576114dc6030826127ad565b9392505050565b60418160ff16101580156114fb575060468160ff1611155b1561150b576114dc6037826127ad565b60618160ff1610158015611523575060668160ff1611155b15611533576114dc6057826127ad565b60405162461bcd60e51b815260206004820152601560248201527424b73b30b634b2103432bc1031b430b930b1ba32b960591b6044820152606401610e06565b50919050565b82600481019282156115a7579160200282015b828111156115a757825182559160200191906001019061158c565b506115b3929150611691565b5090565b6001830191839082156115a7579160200282015f5b8382111561160857835183826101000a81548160ff02191690831515021790555092602001926001016020815f010492830192600103026115cc565b80156116345782816101000a81549060ff02191690556001016020815f01049283019260010302611608565b50506115b3929150611691565b828054828255905f5260205f20908101928215611685579160200282015b82811115611685578251829061167590826123fe565b509160200191906001019061165f565b506115b39291506116a5565b5b808211156115b3575f8155600101611692565b808211156115b3575f6116b882826116c1565b506001016116a5565b5080546116cd9061206c565b5f825580601f106116dc575050565b601f0160209004905f5260205f2090810190610aeb9190611691565b634e487b7160e01b5f52604160045260245ffd5b6040516101a081016001600160401b038111828210171561172f5761172f6116f8565b60405290565b604051601f8201601f191681016001600160401b038111828210171561175d5761175d6116f8565b604052919050565b8015158114610aeb575f5ffd5b5f82601f830112611781575f5ffd5b61178b6080611735565b80608084018581111561179c575f5ffd5b845b818110156117b657803584526020938401930161179e565b509095945050505050565b5f82601f8301126117d0575f5ffd5b6117da6060611735565b8060608401858111156117eb575f5ffd5b845b818110156117b657803561180081611765565b8452602093840193016117ed565b5f610140828403128015611820575f5ffd5b5060405160a081016001600160401b0381118282101715611843576118436116f8565b604052823561185181611765565b815260208381013590820152604083013561186b81611765565b604082015261187d8460608501611772565b606082015261188f8460e085016117c1565b60808201529392505050565b5f81518084528060208401602086015e5f602082860101526020601f19601f83011685010191505092915050565b602081525f6114dc602083018461189b565b5f6001600160401b038211156118f3576118f36116f8565b50601f01601f191660200190565b5f82601f830112611910575f5ffd5b8135602083015f611928611923846118db565b611735565b905082815285838301111561193b575f5ffd5b828260208301375f92810160200192909252509392505050565b5f6001600160401b0382111561196d5761196d6116f8565b5060051b60200190565b5f82601f830112611986575f5ffd5b813561199461192382611955565b8082825260208201915060208360051b8601019250858311156119b5575f5ffd5b602085015b838110156119f55780356001600160401b038111156119d7575f5ffd5b6119e6886020838a0101611901565b845250602092830192016119ba565b5095945050505050565b5f5f60408385031215611a10575f5ffd5b82356001600160401b03811115611a25575f5ffd5b83016102408186031215611a37575f5ffd5b611a3f61170c565b813581526020808301359082015260408083013590820152611a648660608401611772565b606082015260e08201356001600160401b03811115611a81575f5ffd5b611a8d87828501611901565b6080830152506101008201356001600160401b03811115611aac575f5ffd5b611ab887828501611977565b60a0830152506101208201356001600160401b03811115611ad7575f5ffd5b611ae387828501611901565b60c0830152506101408201356001600160401b03811115611b02575f5ffd5b611b0e87828501611901565b60e0830152506101608201356001600160401b03811115611b2d575f5ffd5b611b3987828501611901565b610100830152506101808201356001600160401b03811115611b59575f5ffd5b611b6587828501611901565b610120830152506101a08201356001600160401b03811115611b85575f5ffd5b611b9187828501611901565b610140830152506101c0820135610160820152611bb2866101e084016117c1565b61018082015292505060208301356001600160401b03811115611bd3575f5ffd5b611bdf85828601611901565b9150509250929050565b5f5f60408385031215611bfa575f5ffd5b82356001600160401b03811115611c0f575f5ffd5b611c1b85828601611901565b92505060208301356001600160401b03811115611bd3575f5ffd5b8a815289602082015288604082015261014060608201525f611c5c61014083018a61189b565b8281036080840152611c6e818a61189b565b905082810360a0840152611c82818961189b565b905082810360c0840152611c96818861189b565b905082810360e0840152611caa818761189b565b9050828103610100840152611cbf818661189b565b915050826101208301529b9a5050505050505050505050565b5f5f5f60608486031215611cea575f5ffd5b833592506020840135915060408401356001600160401b03811115611d0d575f5ffd5b611d1986828701611901565b9150509250925092565b5f60208284031215611d33575f5ffd5b5035919050565b6001600160a01b0381168114610aeb575f5ffd5b5f5f60408385031215611d5f575f5ffd5b8235611d6a81611d3a565b915060208301356001600160401b03811115611d84575f5ffd5b8301601f81018513611d94575f5ffd5b8035611da261192382611955565b8082825260208201915060208360051b850101925087831115611dc3575f5ffd5b6020840193505b82841015611de5578335825260209384019390910190611dca565b809450505050509250929050565b5f60208284031215611e03575f5ffd5b81356114dc81611d3a565b602081525f6040820183516020808501528181518084526060860191506020830193505f92505b808310156119f55783518252602082019150602084019350600183019250611e35565b5f5f83601f840112611e68575f5ffd5b5081356001600160401b03811115611e7e575f5ffd5b602083019150836020828501011115611e95575f5ffd5b9250929050565b5f5f5f5f60408587031215611eaf575f5ffd5b84356001600160401b03811115611ec4575f5ffd5b611ed087828801611e58565b90955093505060208501356001600160401b03811115611eee575f5ffd5b611efa87828801611e58565b95989497509550505050565b5f5f83601f840112611f16575f5ffd5b5081356001600160401b03811115611f2c575f5ffd5b6020830191508360208260051b8501011115611e95575f5ffd5b5f5f5f5f60408587031215611f59575f5ffd5b84356001600160401b03811115611f6e575f5ffd5b611f7a87828801611f06565b90955093505060208501356001600160401b03811115611f98575f5ffd5b611efa87828801611f06565b5f5f60408385031215611fb5575f5ffd5b8235611fc081611d3a565b946020939093013593505050565b815460ff908116151582526001830154602083015260028301541615156040820152610140810160608201600384015f5b600481101561201e578154835260209092019160019182019101611fff565b505050600783015460ff808216151560e0850152600882901c8116151561010085015260109190911c1615156101208301526110ff565b5f60208284031215612065575f5ffd5b5051919050565b600181811c9082168061208057607f821691505b60208210810361157357634e487b7160e01b5f52602260045260245ffd5b5f82601f8301126120ad575f5ffd5b6120b76080611735565b8060808401858111156120c8575f5ffd5b845b818110156117b65780518452602093840193016120ca565b5f82601f8301126120f1575f5ffd5b81516120ff611923826118db565b818152846020838601011115612113575f5ffd5b8160208501602083015e5f918101602001919091529392505050565b5f82601f83011261213e575f5ffd5b815161214c61192382611955565b8082825260208201915060208360051b86010192508583111561216d575f5ffd5b602085015b838110156119f55780516001600160401b0381111561218f575f5ffd5b61219e886020838a01016120e2565b84525060209283019201612172565b5f82601f8301126121bc575f5ffd5b6121c66060611735565b8060608401858111156121d7575f5ffd5b845b818110156117b65780516121ec81611765565b8452602093840193016121d9565b5f6020828403121561220a575f5ffd5b81516001600160401b0381111561221f575f5ffd5b82016102408185031215612231575f5ffd5b61223961170c565b81518152602080830151908201526040808301519082015261225e856060840161209e565b606082015260e08201516001600160401b0381111561227b575f5ffd5b612287868285016120e2565b6080830152506101008201516001600160401b038111156122a6575f5ffd5b6122b28682850161212f565b60a0830152506101208201516001600160401b038111156122d1575f5ffd5b6122dd868285016120e2565b60c0830152506101408201516001600160401b038111156122fc575f5ffd5b612308868285016120e2565b60e0830152506101608201516001600160401b03811115612327575f5ffd5b612333868285016120e2565b610100830152506101808201516001600160401b03811115612353575f5ffd5b61235f868285016120e2565b610120830152506101a08201516001600160401b0381111561237f575f5ffd5b61238b868285016120e2565b610140830152506101c08201516101608201526123ac856101e084016121ad565b610180820152949350505050565b601f82111561055d57805f5260205f20601f840160051c810160208510156123df5750805b601f840160051c820191505b81811015610f11575f81556001016123eb565b81516001600160401b03811115612417576124176116f8565b61242b81612425845461206c565b846123ba565b6020601f82116001811461245d575f83156124465750848201515b5f19600385901b1c1916600184901b178455610f11565b5f84815260208120601f198516915b8281101561248c578785015182556020948501946001909201910161246c565b50848210156124a957868401515f19600387901b60f8161c191681555b50505050600190811b01905550565b634e487b7160e01b5f52603260045260245ffd5b6001600160a01b03831681526040602080830182905283519183018290525f91908401906060840190835b818110156125155783518352602093840193909201916001016124f7565b50909695505050505050565b5f5f8585111561252f575f5ffd5b8386111561253b575f5ffd5b5050820193919092039150565b803560208310156110ff575f19602084900360031b1b1692915050565b60ff60f81b8760f81b16815260ff1986166001820152846020820152836040820152818360608301375f910160600190815295945050505050565b838152818360208301375f910160200190815292915050565b604081525f6125cb604083018561189b565b82810360208401526125dd818561189b565b95945050505050565b5f5f8335601e198436030181126125fb575f5ffd5b8301803591506001600160401b03821115612614575f5ffd5b6020019150600581901b3603821315611e95575f5ffd5b6001600160a01b038416815260406020820181905281018290525f6001600160fb1b03831115612659575f5ffd5b8260051b8085606085013791909101606001949350505050565b634e487b7160e01b5f52601160045260245ffd5b818103818111156110ff576110ff612673565b634e487b7160e01b5f52603160045260245ffd5b6001600160a01b03831681526040602082018190525f906126d19083018461189b565b949350505050565b5f602082840312156126e9575f5ffd5b81516114dc81611d3a565b805160208201516bffffffffffffffffffffffff19811691906014821015612740576bffffffffffffffffffffffff196bffffffffffffffffffffffff198360140360031b1b82161692505b5050919050565b80820281158282048414176110ff576110ff612673565b808201808211156110ff576110ff612673565b60ff818116838216029081169081811461278d5761278d612673565b5092915050565b60ff81811683821601908111156110ff576110ff612673565b60ff82811682821603908111156110ff576110ff61267356fea2646970667358221220e1c2789b9def7abd61e7181ad610266be5e7b0272788bd8d50a929e84c69616a64736f6c634300081c0033",
  "linkReferences": {},
  "deployedLinkReferences": {},
  "immutableReferences": {
    "23": [
      {
        "length": 32,
        "start": 898
      },
      {
        "length": 32,
        "start": 1278
      },
      {
        "length": 32,
        "start": 3354
      }
    ]
  },
  "inputSourceName": "project/contracts/UserVerification.sol",
  "buildInfoId": "bdbe8e13f380ce2f18573fc5633ba89f3e373edb"
}